:020000040800F2
:10000000D80F002025030008FDC500085DBB0008CF
:10001000F9C50008D52C00080DE20008000000001A
:100020000000000000000000000000003DC80008C3
:10003000552E0008000000009DC7000895C8000864
:100040003F0300083F0300083F0300083F03000888
:100050003F0300083F0300083F0300083F03000878
:100060003F0300083F0300083F030008152D000868
:10007000252D00083F0300083F0300083F03000848
:100080003F03000800000000B52B00083F030008F4
:100090003F030008E52F00083F0300083F03000866
:1000A0003F0300083F0300083F0300083F03000828
:1000B00029C900083F0300083F0300083F03000868
:1000C0003F0300083F0300083F0300083F03000808
:1000D0003F030008FDE100083F0300083F0300085C
:1000E0003F0300083F0300083F0300083F030008E8
:1000F0003F0300083F0300083F0300080000000022
:10010000000000003F030008000000003F0300085B
:100110003F030008000000003F0300083F03000801
:100120003F0300083F0300083F0300083F030008A7
:100130003F03000800000000000000003F0300082B
:100140003F0300083F03000800000000000000001B
:10015000000000000000000000000000000000009F
:100160000000000000000000000000003F03000845
:100170003F03000800000000000000000000000035
:10018000000000003F030008000000000000000025
:10019000000000000000000000000000000000005F
:1001A00000000000000000003F0300083F030008BB
:1001B0003F0300083F0300083F0300080000000061
:1001C000000000003F0300080000000000000000E5
:1001D0003F0300083F03000800F002F800F092F827
:1001E0000AA090E8000C82448344AAF10107DA4592
:1001F00001D100F087F8AFF2090EBAE80F0013F052
:10020000010F18BFFB1A43F0010318477C1F0100C0
:100210009C1F0100103A24BF78C878C1FAD8520751
:1002200024BF30C830C144BF04680C607047000070
:100230000023002400250026103A28BF78C1FBD8EF
:10024000520728BF30C148BF0B6070476E2900F0CD
:10025000D982702900F01B84662911F082846529F7
:1002600011F07F84672911F07C84612911F07B846F
:1002700003681B0A28BF41F08001692900F08682CB
:10028000642900F08382752900F080826F2900F0D4
:10029000A983782900F0E783E92900F04383E42962
:1002A00000F04083F52900F03D83EF2900F0A6839C
:1002B000F82900F0E6830368DB0928BF41F08001DC
:1002C000632901F08584732901F08A84E32901F010
:1002D0009584F32901F09A84002070471FB511F02E
:1002E000FAFB02F061F904000020002111F008F887
:1002F000401C60600020002110F0ECFFE0601FBD9A
:1003000010B510BD02F022F91146FFF7E7FF0FF01C
:10031000F1FC02F013FA03B4FFF7F2FF03BC02F0A2
:1003200041FC00000948804709480047FEE7FEE716
:10033000FEE7FEE7FEE7FEE7FEE7FEE7FEE7FEE795
:1003400004480549054A064B7047000015C90008D6
:10035000D9010008D8090020D80F0020D80B0020B0
:10036000D80B002053EA020C00F069802DE9F04B15
:100370004FF00006002B1FBFB3FA83F503FA05F414
:1003800024FA05F65E4012BF1643B2FA82F502FA6D
:1003900005F4C5F120051EBF22FA05FC44EA0C0451
:1003A000203556EA044C4FEA144418BF641C4FF041
:1003B00000084FF00009904271EB030C39D300297B
:1003C00019BFB1FA81F701FA07F6B0FA80F700FA1F
:1003D00007F6C7F120071EBF20FA07FC46EA0C0605
:1003E0002037B6FBF4FCA7EB0507103F07F01F0B07
:1003F000CBF120062CFA06F60CFA0BFB44BFB346F1
:100400000026202FA4BF5E464FF0000B5BEA060CCF
:1004100008BF4FF0010B19EB0B0948EB0608ABFBCB
:10042000027C06FB02CC0BFB03CCC01B71EB0C0166
:10043000C1E70B46024641464846BDE8F08B13B57E
:10044000084318BF4FF0FF300146AFF30080BDE80E
:100450001C4070470FB41CB5084B06AA7B44694684
:100460000090059800F0E7F904460020694600F086
:10047000F5F920461CBC5DF814FB0000FD030000EC
:100480000FB400B58DB010A9099000910B904FF0FA
:10049000FF300A9000200C900648784406900648E9
:1004A00078446A4607900F9909A800F087FD0DB0BF
:1004B0005DF814FB3F0B0000570B000040EA0103FE
:1004C00010B59B070FD1042A0DD310C808C9121FFD
:1004D0009C42F8D020BA19BA884201D9012010BD37
:1004E0004FF0FF3010BD1AB1D30703D0521C07E004
:1004F000002010BD10F8013B11F8014B1B1B07D168
:1005000010F8013B11F8014B1B1B01D1921EF1D1D8
:10051000184610BD10B5431C02E010F8011B71B164
:100520008107FAD14FF0013202C88C1A8C4314EAC9
:10053000C211F9D0C01A0A0603D0C01E10BDC01ADD
:1005400010BD0A0401D0801E10BD0902FCD0401E5F
:1005500010BD032A40F2308010F0030C00F015802B
:1005600011F8013BBCF1020F624498BF11F801CBB6
:1005700000F8013B38BF11F8013BA2F1040298BF1B
:1005800000F801CB38BF00F8013B11F0030300F085
:10059000AB86083AC0F0088051F8043B083A51F89D
:1005A00004CBA0E80810F5E7121D5CBF51F8043B2E
:1005B00040F8043BAFF30080D20724BF11F8013BA1
:1005C00011F801CB48BF11F8012B24BF00F8013B03
:1005D00000F801CB48BF00F8012B70474FF0000234
:1005E00000B5134694469646203922BFA0E80C5029
:1005F000A0E80C50B1F12001BFF4F7AF090728BF04
:10060000A0E80C5048BF0CC05DF804EB890028BF7F
:1006100040F8042B08BF704748BF20F8022B11F0A8
:10062000804F18BF00F8012B704700000000000049
:1006300030B44FF0013C50F8042B51F8043BCCFA95
:1006400052F4D51A20D1FCB950F8042B51F8043BD0
:10065000CCFA52F4D51A17D1B4B950F8042B51F88A
:10066000043BCCFA52F4D51A0ED16CB950F8042BD5
:1006700051F8043BCCFA52F4D51A05D1002CDAD04B
:1006800030BC4FF00000704729BAB1FA81F111F087
:100690001801D1F120008440F2D1CA40CB4012F0C1
:1006A000FF0213F0FF0330BCD01A70477047704749
:1006B000704710B500F04AFE006810BD10B5044642
:1006C00000F044FE046010BD70B504468569006802
:1006D000C10601D5302600E02026C00707D070BD36
:1006E000D4E9012130469047206A401C20626D1EEB
:1006F000F6D570BD70B5044685690078C00707D18E
:1007000070BDD4E9012120209047206A401C20625E
:100710006D1EF6D570BD09684A0501D540B2704717
:10072000C905FCD500B2704709684A0501D5C0B2B9
:100730007047C905FCD580B2704770B50C460546B8
:10074000012A05D02878800600D5EA69002302E056
:10075000012305E05B1C934202D2E05C0028F9D142
:10076000A869E618C01AA861286A184428622846B1
:10077000FFF7AAFF04E0D5E9012114F8010B904727
:10078000B442F8D32846FFF7B5FF70BD2DE9F0411C
:100790000646002410687529314616A510D0FFF7CB
:1007A000BAFF002802DA404213A507E031688A0741
:1007B00001D512A502E0490704D511A5012401E0E5
:1007C000FFF7B2FF00210A2206F1240709E0B0FB7F
:1007D000F2FCB0FBF2F302FB1C00303078541846F8
:1007E000491C0028F3D123462A463046BDE8F04193
:1007F00000F0FEBD000000002D0000002B000000F6
:100800002000000011680268006A530501D50870D5
:100810000AE0D30501D5088006E0130603D5C21708
:10082000C1E9000200E008600120704701694A1C2C
:1008300002610878704700B58FB0CDE90131002121
:10084000059105497944CDE903101146684600F049
:1008500029F90FB000BD0000E5FFFFFF0A6802F8AC
:10086000010B0A60704700002DE9FF5F15468A46BC
:100870000446DFF8AC80F8440027D8E900103E4673
:10088000CDE9001010E03AF816106A4602A801F00F
:1008900034FE411C07D02178890603D5E269391856
:1008A00091420DD80744761C2078800602D5E06975
:1008B000B84205DDAE42E6DB3AF816000028E2D188
:1008C000A069C01BA0612046FFF7FEFED8E900101A
:1008D000CDE90010002017E03AF818106A4602A887
:1008E00001F00BFEB0F1FF3F81460BD000250DF16A
:1008F000080B05E0D4E901211BF8050090476D1CA9
:100900004D45F7D308F10100B0428046E4DB206A90
:10091000384420622046FFF7EDFEBDE8FF9F00004F
:10092000EE1301002DE9F0418046D21D22F00702AE
:100930000025D2E90002F52915A614D0011E72F196
:10094000000106DA0023D0EB030063EB020211A6DC
:1009500008E0D8F800108B0701D50FA602E0490780
:1009600001D50EA601251146002408F1240704E054
:1009700000F0F0FC30323A55641C50EA0102F7D125
:100980002B46324621464046BDE8F04100F030BDDE
:10099000000000002D0000002B00000020000000DF
:1009A00030B4002100F1240408E002F00705D20869
:1009B000303542EA4372DB086554491C52EA0305AC
:1009C000F3D10468002310A2250708D504F0200401
:1009D0000C4304D0C46901230CA2641EC46130BC62
:1009E00000F006BD10B5044621461068FFF79CFED6
:1009F00002462046BDE810400023D1E7D21D22F078
:100A00000701D1E90023CBE700000000300000001F
:100A1000F0B40D460188090502D5214C7C4402E062
:100A20001F4C7C440E34002100F1240608E002F043
:100A30000F071209E75D42EA03721B097754491C4C
:100A400052EA0307F3D102780023120704D5702D70
:100A500006D009B1022311342246F0BC00F0C8BC14
:100A600001231034F8E770B504460D46214610689E
:100A7000FFF75AFE024629462046BDE87040002393
:100A8000C6E7D21D22F00703D3E90023C0E70368BD
:100A9000126843F0200303600823C3610023B7E713
:100AA000501201002DE9F05F894604464FF0000A1C
:100AB000DFF874B1FB44C0F820A02046E168884705
:100AC000002874D0252806D0D4E901219047206A57
:100AD000401C2062F1E700265F462046E168884717
:100AE0002028054607DB312D05D2781910F8200C97
:100AF00008B10643F1E7B00701D526F00406C4F8B3
:100B00001CA00027C4F818A02A2D09D0284610F0F0
:100B100091FB38B304EB8708303DC8F8185019E052
:100B200059F8041B204604EB87029161E16888476D
:100B3000012F054618D1E069002820DA26F02006AA
:100B40001DE0D8F8180000EB800005EB40003038BD
:100B5000C8F818002046E1688847054610F06AFB8F
:100B60000028EED1012F0AD02E2D08D12046E168B1
:100B700088477F1C0546022F46F02006C4DBA0698B
:100B8000002803DA404246F00106A061F00701D0D8
:100B900026F010066C2D0BD0682D09D04C2D39D0C5
:100BA0006A2D35D0742D35D07A2D33D016E038E04B
:100BB000E1682F4620468847B842054609D16C2F88
:100BC00026D04FF48060E1680643204688470546FA
:100BD00004E06C2F1AD04FF4807006430DB3A5F1DA
:100BE0004100192802D8203546F400664A462946B5
:100BF000204626604E46FFF729FB80B101280BD026
:100C0000F61D26F0070000F1080956E74020E4E74A
:100C10008020D8E70020D6E706F104094DE72846F2
:100C200052E7206ABDE8F09FE01101002DE9FF4F77
:100C30001C4691464FF0FF3581B000218A46884618
:100C4000D4E90167A16902986D1C8847216A83462F
:100C500088470028F6D1BBF1FF3F0CD0002F26F4C7
:100C6000C0661ADD700615D5BBF12B0F0AD0BBF19B
:100C70002D0F0FD104E04FF0FF3005B0BDE8F08F2D
:100C800046F48066A16902986D1C88477F1E8346E2
:100C9000002F02DDBBF1300F03D0B9F1000F2AD0D5
:100CA00025E0A1696D1C02987F1E46F400768847F6
:100CB000002F834605DDBBF1780F06D0BBF1580F3E
:100CC00003D0B9F1000F10D011E0B9F1000F02D03C
:100CD000B9F1100F0BD1A1696D1C02987F1E26F48B
:100CE000007688478346102000E0082081464FEABE
:100CF000E970009017E00A20F8E74346AAFB0928AC
:100D0000DDF800C07F1E03FB098046F4007605F184
:100D100001050AFB0C0112EB0B0A029841EBEB7880
:100D2000A16988478346002F06DD4946584600F0F2
:100D300071FF5FEA000BE0D5E16902988847B005D2
:100D400002D46FF0010098E7F00718D1700610D5B3
:100D50005146700505D50023D1EB030163EB080272
:100D600000E042462068031D23600068C0E90012CD
:100D700005E02068011D21600068C0E900A8284640
:100D80007BE72DE9FF5F1D464FF0FF3B91464FF09B
:100D900000085F46D5E90146A96901987F1C88478C
:100DA000296A824688470028F6D1BAF1FF3F0CD065
:100DB000002E24F4C06419DD600614D5BAF12B0F9F
:100DC00009D0BAF12D0F0ED103E0584604B0BDE8AA
:100DD000F09F44F48064A96901987F1C8847761EBF
:100DE0008246002E02DDBAF1300F03D0B9F1000FB8
:100DF00026D032E0A969761E01987F1C44F4007465
:100E00008847002E824605DDBAF1780F06D0BAF188
:100E1000580F03D0B9F1000F10D01EE0B9F1000F48
:100E200002D0B9F1100F18D1A969761E01987F1C64
:100E300024F4007488478246102002E0082000E075
:100E40000A20814609E0A96908FB0908761E019875
:100E50007F1C44F4007488478246002E05DD494615
:100E6000504600F0D7FE0028EDDAE969019888477E
:100E7000A00502D46FF00100A8E7E00725D16006C5
:100E800013D5600502D5C8F1000000E0404629688E
:100E90000A1D2A600968220501D5087015E022079D
:100EA00001D5088011E008600FE02868011D296065
:100EB0000068210502D580F8008006E0210702D5F0
:100EC000A0F8008001E0C0F8008038467EE72DE9F8
:100ED000FF5F4FF000089946144646469169D2E9F3
:100EE00001A7DDF838B001988847054659EA0B009C
:100EF00005D009E0A1690198761C88470546216A5A
:100F0000284688470028F5D1681C03D05FEACA70DC
:100F100005D015E04FF0FF3004B0BDE8F09F206829
:100F2000011D2160D0F800800AE05FEACA7001D19B
:100F300008F8015BA169761C01987F1E8847054669
:100F4000002F1ADD681C18D0B9F1000F0DD0E8177A
:100F500005EBD060421120F01F0059F822102A1A28
:100F6000012090400142E0D107E0BBF1000FDCD14D
:100F70002846216A88470028D7D0E1690198884728
:100F8000BBF1000F07D1002E05DD5FEACA7002D168
:100F9000002188F80010A068B84203DDBBF1000F03
:100FA00003D017B16FF00100B6E73046B4E7000098
:100FB000026811441378016018467047D1600549F2
:100FC000794451610449794411620021116111464B
:100FD00000F02EBEEDFFFFFF15040000426842B195
:100FE000016811F8013B23B1521EC0E900121846F6
:100FF00070470121C160881E704742685AB1C368BA
:10100000016843B983688B4205D0491E521CC0E970
:101010000012002070474FF0FF3070472DE9FF4F5E
:101020004FF000089A461446C146464683B0D2E9BE
:1010300001B7CDF80080CDF8048091690498884705
:10104000109905465AEA010005D009E0A169049803
:10105000761C88470546216A284688470028F5D12E
:10106000681C03D05FEACB7005D02AE04FF0FF3058
:1010700007B0BDE8F08F2068011D2160D0F8008026
:101080001FE002A86A46E9B201F017FA411C07D036
:10109000801C09D04FF000095FEACB7007D00AE04E
:1010A000E169049888473EE04FF0010904E0BDF88B
:1010B000081028F8021B7F1EA1690498761C884737
:1010C0000546002F1ADD681C18D0BAF1000F0DD0AC
:1010D000E81705EBD060421120F01F005AF82210EB
:1010E0002A1A012090400142CBD107E01098002835
:1010F000C7D12846216A88470028C2D0E1690498F0
:101100008847B9F1000F0ED1109830B9002E04DDD8
:101110005FEACB7001D1A8F80000A068B84202DDF8
:10112000109818B117B16FF00100A1E730469FE7A2
:101130002DE9FF4F4FF000089B461446454683B00B
:10114000D2E90196CDF80080CDF804809169DDF8F0
:1011500048A00498884707465BEA0A0005D009E0E2
:10116000A16904986D1C88470746216A384688475C
:101170000028F5D1781C03D05FEAC97005D01BE0C8
:101180004FF0FF3007B0BDE8F08F2068011D2160EF
:10119000D0F8008010E05FEAC97007D16A46404687
:1011A000B9B201F0AAF9411C31D08044A1696D1C8B
:1011B0000498761E88470746002E14DD781C12D04E
:1011C000BBF1000007D03B46DDE9101201F066F9E3
:1011D0000028E0D107E0BAF1000FDCD13846216ADF
:1011E00088470028D7D0E16904988847BAF1000FF2
:1011F00006D1002D04DD5FEAC97001D188F8000036
:10120000A068B04203DDBAF1000F03D016B16FF051
:101210000100B7E72846B5E72DE9FF5F9B46144676
:1012200000273D469169D2E90196DDF840A001987A
:10123000884780465BEA0A0005D009E0A169019869
:101240006D1C88478046216A404688470028F5D1B2
:10125000B8F1FF3F03D05FEAC97005D014E04FF04A
:10126000FF3004B0BDE8F09F2068011D21600768D1
:101270000AE05FEAC97001D127F8028BA1696D1CF1
:101280000198761E88478046002E15DDB8F1FF3F95
:1012900012D0BBF1000007D04346DDE90E1201F089
:1012A000FDF80028E5D107E0BAF1000FE1D1404692
:1012B000216A88470028DCD0E16901988847BAF1A3
:1012C000000F05D1002D03DD5FEAC97000D1388021
:1012D000A068B04203DDBAF1000F03D016B16FF081
:1012E0000100BEE72846BCE710B5203AC0F00B80ED
:1012F000B1E81850A0E81850B1E81850A0E818500C
:10130000203ABFF4F5AF5FEA027C24BFB1E8185081
:10131000A0E8185044BF18C918C0BDE810405FEAE3
:10132000827C24BF51F8043B40F8043B08BF70475F
:10133000D20728BF31F8023B48BF11F8012B28BF64
:1013400020F8023B48BF00F8012B70470048704767
:10135000D000002030B5B0F10A0271F100034FEA6D
:10136000900E4EEA817EB0EB0E0061EB91014FEAE8
:10137000101E4EEA017E10EB0E0041EB11114FEAF8
:10138000102E4EEA016E10EB0E0041EB11214FEAD8
:10139000104E4EEA014E10EB0E0041EB1141401889
:1013A00041F100014FEAD00040EA41704FEAD1011B
:1013B0004FEA810444EA907410EB800544EB010489
:1013C0006D1944EB0404521BA3414FF0000348BFC6
:1013D0000A3200D530BD401C41F1000130BD10B5CE
:1013E000044601F0D9F80068005D00F0010010BD6E
:1013F0002DE9F0470D4699469246044600F124082F
:101400000168880604D5E06921F01001216000E040
:101410000120A84201DD471B00E00027A1697A19DD
:1014200002EB0900081AA0612078C00602D4204609
:10143000FFF74AF9002608E0D4E901211AF806006E
:101440009047206A401C761C20624E45F4DB2078D1
:10145000C0060AD52046FFF737F906E0D4E9012196
:1014600030209047206A401C2062381EA7F10107F7
:10147000F4DC07E0D4E9012118F805009047206A60
:10148000401C2062281EA5F10105F3DC2046FFF771
:1014900031F92078000602D50220BDE8F08701204E
:1014A000FBE72DE9FF4F0C461E464FF0FF378BB090
:1014B000D2E90001DDF860800A908A46C1F30A553E
:1014C00005B93D46002108464FF00000BAF1000F73
:1014D00000F4400005DA00EB80004FF4400101EA1F
:1014E00050004FEA9059B9F1010F00DDB9460A9852
:1014F00050EA4A000ED044F61050A5F2FF3545439D
:101500002F14B8F1000F1ED07542291E1EDDC9F13F
:1015100000021CE0B8F1010F4FF0000001D03021B3
:1015200003E0F24305E02154401CB042FBDB3046AF
:101530000022002121540B99C1F80880C1E9002044
:101540000FB0BDE8F08FBD1B6D1CDEE74A4600DA28
:10155000694206A801F080F806AB93E8070003ABE8
:1015600083E8070050460A990EF050FE8DE8070008
:10157000A0F500501F3800900398002D0ADD42F2BC
:101580001F014A460844002303A9039068460FF050
:10159000FBF809E0A0F500504A461F38002303A9D4
:1015A000039068460FF01AF98DE807000004000C5C
:1015B00003D04FF0FF30410800E01046B8F1000FB3
:1015C00003D00022009215461EE0751E05D4FFF7D9
:1015D000C1FE303262556D1EF9D5B3460122084373
:1015E00002D000227F1C04E02078302801D10022A4
:1015F0007F1E002A099784D01DE0112D07DAFFF71E
:10160000A9FE303262556D1C50EA0102F5D1084343
:1016100002D00098C8B10EE00021681E05E0235CEE
:10162000625C63542254401E491C8142F7DBAB4686
:10163000A81B401E0990002004F80B000B98099A83
:10164000C0F80880C0E9002B7AE711264FF00008A7
:1016500057E72DE9F04F88460446D21D22F00701D6
:1016600091B0D1E90001CDE90A010FF003FA024679
:101670000B98C00F01D02D2007E02068810701D50D
:101680002B2002E0202101EAC000032A099001D0AA
:10169000072A05DB03464146204600F09DFF0BE18B
:1016A0002078800601D5E06900E00620B8F1650FDA
:1016B000814606D0B8F1660F18D0B8F1670F70D127
:1016C00031E00020B9F1110F009001DB112301E09E
:1016D00009F101030AAA01A90CA8FFF7E2FEDDE95E
:1016E0000C70002609F10105834647E001204B46B6
:1016F00000904FF000470AAA01A90CA8FFF7D1FEFD
:10170000DDE90DB00C995D46002610B909F1010024
:101710000D18B9EB050003D4C0F1FF3609F101053E
:10172000A5EB09002BE0B9F1010F01DA4FF0010937
:101730000020B9F1110F0090484601DD112300E0AF
:1017400003460AAA01A90CA8FFF7ABFEDDE90C705D
:101750004D4600268346207800070AD4AB4500DAC0
:101760005D4601A8012D04DD411911F8011C302945
:1017700007D04F4502DA17F1040F04DA0120824640
:101780000FE06D1EEEE7002F02DCED1B3E4403E090
:10179000781CA84200DD7D1CB81B00F1010A4FF047
:1017A00000472078000703D4AA4501DB4FF0FF3A39
:1017B0000021B7F1004F0DF143088DF8431024D0FC
:1017C00002202B23002F01DA7F422D230A21021E43
:1017D000A0F1010000DC5FB197FBF1FC97FBF1F297
:1017E00001FB1C7C17460CF1300C08F801CDEEE72C
:1017F000A8F1010003702188090501D5452100E009
:101800006521A0F1010800F8011C09980FA9A1EBBE
:101810000807FF1D00B10120411901EBEA70A16921
:101820003844081A401EA0612078C00602D4204621
:10183000FEF74AFF099828B1D4E901219047206AB0
:10184000401C20622078C00622D52046FEF73CFFCF
:101850001EE0002E04DBB34502DD01A8805D00E040
:101860003020D4E901219047206A401C2062761C78
:10187000AAF101005FEA000A0AD100F095FEC068F3
:101880000168405CD4E901219047206A401C206235
:10189000281EA5F10105DCDC07E0D4E9012118F8D8
:1018A000010B9047206A401C2062381EA7F10107F7
:1018B000F3DC2046FEF71EFF032011B041E60000D6
:1018C0002DE9F04F04460D46D21D22F0070089B0E5
:1018D000D0E90097484639460FF0CCF80246F80F99
:1018E00001D02D2307E02068810701D52B2302E0DA
:1018F000202101EAC0038DF820300BB1012000E067
:101900000020032A824601D0072A04DB294620460C
:1019100000F062FE3FE12078800601D40D2500E052
:10192000E569C7F30A560D2D49DA00214FEA175B26
:1019300008464FF00000002F00F4400007DA00EBEB
:1019400080004FF4400100EBD07001EA6000811587
:10195000012901DD4FF0FF3100224FEA850CBCF177
:10196000180F06D31346ACF118004FF08052C24056
:1019700003E04FF4801323FA0CF30CF10C0CBCF1D0
:10198000200F04D3ACF1200C09FA0CF001E007FAA7
:101990000CF000294FF0004801DD18B90FE00ED11E
:1019A00040450CD319EB02095F4121B9404502D1F2
:1019B0009F4329EA0209BBEB175F00D0761C208801
:1019C000000502D57B48784402E07A48784419380B
:1019D00008AA302302F80A30037C0AF10101002E24
:1019E0000AF1020A53546A4602DC4FF0300101E06A
:1019F0004FF031014FF001088DF8001002D0A6F22F
:101A0000FF3603E059EA470100D06B4E002D02DC9F
:101A10002178090704D54FF002082E218DF8011016
:101A2000C44600210BE0C7F303433F01C35C491CDC
:101A30006D1E02F80830052908F1010801DA002DB1
:101A4000F1DC00210CE000EB1973491C1B786D1EC2
:101A5000082902F808304FEA091908F1010801DAEB
:101A6000002DF0DC21688B0602D516E0A8F10108F4
:101A7000E04505DD02EB080313F8013C302BF5D0FF
:101A8000B8F1000F09DD02EB080313F8013C2E2B1F
:101A900003D1090701D4A8F10108002D05DD3E217D
:101AA00002F808106D1E08F10108407C002E02F8B3
:101AB000080008F1010804DA2D20764202F8080037
:101AC00002E02B2002F808000A214FF47A708642C7
:101AD00008F101080BDB96FBF0F3303302F8083015
:101AE00096FBF0F308F1010800FB136601E0642E99
:101AF0000CDB642096FBF0F3303302F8083096FBE1
:101B0000F0F308F1010800FB136601E00A2E06DB82
:101B100096FBF1F0303002F8080008F1010896FB5E
:101B2000F1F001FB1060303002F80800A16908F103
:101B3000010808EB050202EB0A00081AA0612078F0
:101B4000C00602D42046FEF7BFFD216A08AE01EBB5
:101B50000A00206204E0D4E9012116F8010B904745
:101B6000BAF1010AF7D22078C00602D52046FEF766
:101B7000ABFD6E4609E016F8010B3E280FD0D4E904
:101B800001219047206A401C2062B8F10108F2D27E
:101B90002046FEF7AFFD09B00320BDE8F08F206AB4
:101BA0002844206203E0D4E90121302090476D1ED3
:101BB000EBD3F8E71503010002FCFFFF10B5436902
:101BC00013B1AFF3008001E0FEF7B7FD012010BDB7
:101BD000127800F124010A7000224A700122EDE718
:101BE00011684FF0FF32E9E710B5436913B1AFF365
:101BF000008001E0FEF738FE012010BD128800F1E0
:101C0000240182840022C2840122EDE711684FF092
:101C1000FF32E9E73A2800D2303820F02002412A8A
:101C200001D3A2F13700884201D34FF0FF30704753
:101C30002DE9F34F4FF0000A0C4656468DB00120B7
:101C40000C9001F10C000B9062690B9801219047F8
:101C5000051E2DD0252D2CD0216A8847C0B1626980
:101C60000B9801219047216A88470028F7D16269C3
:101C7000411E0B98904700E0761CA1690D9888479B
:101C8000216A88470028F7D1E1690D988847DBE78A
:101C9000A1690D988847A842074601D1761CD3E771
:101CA000E1690D9888477F1C02D1BAF1000F6FD00F
:101CB0006BE162690B9800273D46394690472A2818
:101CC00004D162690B98012190470125DFF8D08289
:101CD00062690B9801219047A0F130010A290AD2CC
:101CE0004745E5DC07EB870100EB4107303FDFD4D8
:101CF00045F01005ECE7E90601D46FF000476C28C9
:101D00000AD04C2814D0682815D06A280DD0742821
:101D10001CD07A281AD01DE062690B9801219047E7
:101D20006C2802D045F0040514E045F002050DE0F2
:101D300045F020050AE062690B9801219047682868
:101D400002D045F0080505E045F4006562690B988E
:101D500001219047C4E9015765283DD019DC582876
:101D60007AD00CDC452837D004DC252826D0412841
:101D70009ED131E046282FD0472899D12CE05B280E
:101D800077D0612828D063287CD0642823D15AE0FA
:101D9000F6E06F2848D008DC66281DD067281BD0E5
:101DA000692821D06E2816D127E0702845D07328E5
:101DB00068D0752847D078280DD14DE0A1690D98DD
:101DC0008847252805463FF469AFE1690D988847A3
:101DD0006D1C3FF46AAFD8E00D9923466A466FF058
:101DE00001000FF022FFC5E045F0400023464FF010
:101DF00000026060A80736D43EE0E8077FF447AFF2
:101E00002068011D21600068290501D506701BE7C7
:101E1000290701D5068017E7A90703D5F117C0E9FF
:101E2000006111E706600FE745F0400023464FF0E0
:101E300008026060A80716D41EE040F60E0125EAED
:101E40000100606016E045F0400023464FF00A02B2
:101E50006060A80707D40FE045F040006060A80765
:101E600008D5234610220D996FF00100FEF7DEFE23
:101E700080E007E0102223460D996FF00100FEF785
:101E800080FF77E04FF0000963284F46C8464B4675
:101E9000CB4602D05B2806D038E0E80601D401200A
:101EA000A060012732E06269D4F80CB00B980121E0
:101EB00090475E2807D14FF0010949466269D4F87E
:101EC0000CB00B989047216939B900210A4603AB41
:101ED00043F82120491C0829FADBD8B3216949B30A
:101EE00008F1010862690B98012190475D28F4D13F
:101EF000B9F1000F09D0002003A951F82020D243E6
:101F000041F82020401C0828F7DB03AB206900289B
:101F100020794FEA40701ED05B462246CDF8008003
:101F2000CDE901970D9900286FF0010020DAFFF745
:101F300073F91FE0C11703AA00EBD1614B1121F027
:101F40001F0102EB8302411A1368012088400343FA
:101F50001360C7E719E00D99224600286FF00100D1
:101F6000009702DAFFF75AF804E0FEF7B0FF01E04D
:101F7000FFF7DEF800280ADA401C06D10C9820B1E1
:101F80004FF0FF300FB0BDE8F08F5046FAE7E90799
:101F900001D10AF1010A064400200C9054E6000029
:101FA000CCCCCC0C2DE9FF4F06468BB00878FF282F
:101FB00006D0491C2D2805D000244FF0000908E068
:101FC00000200CE00124F8E709EB8903491C00EB31
:101FD00043090878FF28F7D114B1C9F10000814600
:101FE000107800252C46AA4629462D2801D02B28FA
:101FF00004D1521C2D2813D0002082468B46107825
:10200000FF280FD04FF0000C0A21521CA5FB0178CD
:1020100004FB018105FB0C11C5194BEB0104EEE734
:102020000120EAE7002108464FF00000BAF1000F56
:1020300002D000EB80004008C0F38157012F01DD82
:102040004FF0FF370E9955EA040009EB01080BD059
:102050004FF0020918F5FA7F16DA4FEACA70002F1E
:10206000706008DD012007E04FEACA70C6E900B0E1
:102070000FB0BDE8F08F00203060FFF767F9C0F8BF
:1020800000901821084616E0B8F5FA7F18DD002FF9
:1020900002DAF748784401E0F6487844D0E90010C5
:1020A000C6E9001040EACA707060FFF74FF9C0F847
:1020B0000090142108460FB0BDE8F04F0FF04EBD60
:1020C000002108464FF00000B8F10001099002DA43
:1020D000C7F1000200E03A4601DAC8F1000106A8A3
:1020E00000F0BAFA06AB93E8070003AB83E80700F9
:1020F00044F23E005BEA04010090584604D144F2E9
:102100001E012C465D460091210C0904014306D1B5
:102110000099240444EA15442D041039009104F078
:102120007F41014306D10099240244EA15642D023F
:102130000839009104F07041014306D1009924014F
:1021400044EA15742D01091F009104F04041014338
:1021500006D10099A40044EA9574AD00891E00914F
:1021600004F00041084304D100986D196441401EF9
:1021700000904FF001033A466846B8F1000FCDE9F0
:10218000014503A902DD0EF03EFB01E00EF011FB5C
:10219000BAF1000F04460D4601D084F0004400213E
:1021A00008464FF00000099940F2FF77484010F0D0
:1021B0000C0F07D124F00040284303D0C4F30A5089
:1021C000B84212D1FFF7C2F8C0F80090C4F30A5029
:1021D000B8420AD1A8487844D0E90010C6E90010F6
:1021E00004F000410843706042E7C6E900543FE74D
:1021F0002DE9FF4F1F464FF0000A4FF0FF384546CC
:1022000091B0D7E90146CDF83CA000F0CDF9C06807
:102210000168405C1090B96912986D1C8847396A52
:10222000814688470028F6D1B9F1FF3F0AD0002E39
:1022300024F4D06411DDB9F12B0F08D0B9F12D0FC2
:102240000BD102E0404615B013E744F48064B9694D
:1022500012986D1C8847761E8146600504A901D539
:102260002D2000E02B20002E01F1010B0DF1300894
:102270008DF810003FDDB9F1690F08D0B9F1490FB1
:1022800005D0B9F16E0F02D0B9F14E0F1CD13B460B
:1022900001A8009580E85002DDE912126FF00200FB
:1022A0000FF0C7FCC11CCED10EE0B96912986D1CAD
:1022B000884781461398761E44F4007405600F9891
:1022C000401C002E0F9016DDB9F1300FEDD0B9F1A2
:1022D000780F02D0B9F1580F0DD10F9801280AD10B
:1022E0003B46CDE90054DDE91212001F02960FF0C3
:1022F0009EFCC11CA7D1109989453ED144F08004B1
:1023000006E01399681CAAF1010A44F400740860FD
:10231000B9696D1C1298761E884730288146F0D026
:102320002BE01099894505D1200603D4761E44F090
:10233000800418E048460EF07DFF08B3761E0DF1CC
:1023400023029345A9F1300044F4007406D20BF83F
:10235000010B200607D5AAF1010003E0200602D4F4
:102360000AF101008246A00502D51399681C086095
:10237000B96912986D1C88478146002ED1DC53E064
:10238000002E51DDB9F1650F02D0B9F1450F4BD1E7
:10239000A00549D5B9696D1C1298761E24F44074C5
:1023A0008847002E81460CDD2B2804D0B9F12D0F73
:1023B00007D144F48074B96912986D1C8847761E61
:1023C0008146E00501D52D2100E02B2108F8011BF5
:1023D000CDF8008021E0761E0DF13901884544F4E6
:1023E00000740CD2A9F1300010F0FF0088F8000052
:1023F00002D10099884509D908F1010806E0E005F5
:1024000001D51E4801E042F20F708246B969129868
:102410006D1C8847814613980560002E04DD4846F0
:102420000EF008FF0028D6D1F96912988847FF20DE
:1024300053468BF8000088F8000000200A900B90AB
:1024400004AA0CA90AA8FFF7ADFDA00502D46FF0FD
:102450000100F8E614F0240F12D0E0071CD1386810
:10246000DDE90A12031D3B600068C0E9001213E0B9
:10247000180101000A010100CEFF0000F1D8FFFFA2
:102480000AA968460EF018FEE00705D13868009AE0
:10249000011D3960006802602846D4E610B508E0E6
:1024A00030F8024B9C4204D10AB1002010BD01203B
:1024B00010BD491EF4D2104610BDF8B516460C46A4
:1024C000054600F069F8036893F80101012804D07B
:1024D000185D78B101202C80F8BDD3F80301324695
:1024E000214603F20313C71868460023B847009932
:1024F0002980F8BD4FF0FF30F8BD2DE9F0411646B8
:102500000C46054600F048F8036893F801010128DD
:1025100007D0FF2C12D8185D80B101202C70BDE8C7
:10252000F081D3F807013246214603F20713C7189A
:102530002846BC46BDE8F041002360474FF0FF301D
:10254000EDE7000000487047D00000207546FFF717
:10255000F9FFAE4605006946534620F00700854660
:1025600018B020B5FDF7ECFEBDE820404FF00006A6
:102570004FF000074FF000084FF0000BAC46ACE8FE
:10258000C009ACE8C009ACE8C009ACE8C00921F05A
:1025900007018D467047000010B500F005F8001DDA
:1025A00010BD00BF5DED000000487047F000002046
:1025B000B2F120030AD5C2F1200301FA02F120FA98
:1025C00003F341EA030100FA02F0704700FA03F155
:1025D0004FF00000704700002DE9F0411F4604460F
:1025E00003260168072A01F4006004DB08B116A580
:1025F00005E016A503E008B115A500E015A521F03A
:1026000010002060A069C01EA0610FB1401EA06133
:102610002046FEF759F84FB1D4E9012138469047DA
:10262000206A401C2062C01C206206E0206AFAE793
:10263000D4E9012115F8010B9047761EF8D2204607
:10264000FEF758F8BDE8F0814E414E006E616E0015
:10265000494E4600696E66002DE9F04781461646F0
:102660008AB0354878440DC88DE80D00324878446A
:10267000801C03AC0DC884E80D0041F69B30084473
:10268000372190FBF1F290FBF1F5A5F1800501FBFC
:1026900012041B3C02D56442012000E00020DFF858
:1026A00098A080460027FA44AAF1BE0A0EE0E0078F
:1026B0000AD03246684607EB470101230AEB810145
:1026C0000EF08CF88DE8070064107F1C002CEED112
:1026D000194F7F44AE3F19E0E80715D007EB04100F
:1026E0000DF1180A90E80E008AE80E00C068F0426A
:1026F00001D1981908903246012306A903A80EF0CB
:102700006DF803AB83E807006D10641C002DE3D166
:102710004FF0010332466946B8F1000F03A802D01A
:102720000EF032F801E00EF059F8C9E90001C9F8DD
:1027300008200AB0BDE8F08708F7000010B504468D
:10274000AFF300802046BDE81040FDF7E4BD000077
:102750002DE9FF4F1F464FF03C0987B04FF0004274
:10276000DDE9141001F10108DDF858A002EA40503B
:102770000390002005908346054604460490B969FD
:10278000461E08988847AAF1010A0290BAF1000F84
:102790003BDD02982E2815D01021FFF73BFA0028C8
:1027A0002EDB4FF0010B0599014317D0B9F1000F53
:1027B0000BDB4A46C117FFF7FBFE05430C43A9F1AB
:1027C000040905E0012004900BE008B145F0010583
:1027D00001200590049820B9361D02E0049800B14C
:1027E000361FB969089808F101088847BBF1000F46
:1027F000AAF1010A0290C9D00999C1F80080C5E781
:102800000298702808D0502806D0F969089888479F
:10281000BBF1000F14D04FE0002002900120BBF16B
:10282000000F049009D0B969089808F10108884799
:10283000AAF10109B9F1000F07DCF9690898884786
:102840006FF001000BB0BDE8F08F2B2804D02D28CD
:102850000CD14FF0FF300490B969089808F10108D5
:102860008847A9F10109B9F1000FE6DD411CE4D068
:102870000A21FFF7CFF90028DFDB029908F10108F0
:1028800001EB810100EB41000290B969089888478B
:102890000A21FFF7BFF9099AA9F10109B9F1000F5F
:1028A000C2F8008001DD0028E7DAF9690898884756
:1028B0000499029800FB016655EA040004D004F074
:1028C0004041090002D006E0039898E0A40044EAE1
:1028D0009574AD00B61E04F00041080002D16D19D8
:1028E0006441761E159810F0240F03D04FF00B09A9
:1028F0005C4803E04FF028096FF07D0082465645A2
:1029000007DAAAEB06018944B9F1410F01DD4FF066
:10291000410901200021A9F10102FFF749FE024609
:1029200028400B462140084301D0012100E000214E
:10293000501E029143F1FF3128402140084301D04D
:10294000012000E000200299834651EA0B014FD09C
:10295000002108464FF00000039900F4400039B10F
:1029600000EB80004FF4400100EBD07001EA600002
:102970008015012802DD4FF0FF3000E013D0401C2D
:1029800036D0029860B3BBF1000F0CD14A4601204B
:102990000021FFF70DFE28402140084301D001200F
:1029A00000E00020E0B101204A460021FFF700FED0
:1029B000034640190A4661412D1A8C4111D3B9F1E1
:1029C000400F09DD159810F0240F02D0AAF134064B
:1029D00003E0AAF1170600E0761C00254FF0004442
:1029E00006E05B1E42F1FF3220EA030521EA020401
:1029F000CAF10100B04206DA1B490398084301906E
:102A0000002000900EE0039AC4F3D321E80A0A43A1
:102A1000164940EA44500A433146CDE9000268466F
:102A20000EF0FEFB159810F0240F0BD01598C00780
:102A300015D13868DDE90012031D3B600068C0E96C
:102A400000120CE002A869460EF036FB1598C0078C
:102A500005D13868029A011D39600068026040465D
:102A6000F0E6000002FCFFFF0000F07F0000F03FF6
:102A70002DE9FF4F92461D4685B04FF00041DDE93C
:102A8000124BDDE914727F1E01EA4B50414940F0C0
:102A9000FF4940EA0108002122F020004928049162
:102AA00002D04E2828D04CE03BA0012607C88DE874
:102AB0000700A9690698641C88477F1E014606D452
:102AC0001DF8060018B121F0200181420BD0E96900
:102AD00006988847032E34D0082E32D06FF00100BC
:102AE00009B0BDE8F08F761C032E01D0082EE0D18E
:102AF000601CCAF80000DCE7A9690698641C8847D6
:102B00007F1E2AD420F02000412826D1A9690698EA
:102B1000641C88477F1E20D420F020004E281CD142
:102B2000A9690698641C88477F1E48F4002849F468
:102B30008009CAF8004001D4282806D0E96906981F
:102B400088475FEACB7012D022E0A9690698641C1E
:102B500088477F1E01D4002803DAE9690698884770
:102B6000BCE72928F1D1641CCAF80040E9E71BF052
:102B7000240F07D028680499031D2B600068C0E962
:102B8000001805E02868021D2A600068C0F800905F
:102B90002046A5E70000F07F494E46494E4954596A
:102BA0000000000001491820ABBEFEE7260002002D
:102BB0007047000080B540F2EC20C2F2000003F044
:102BC0007FFC80BD80B584B0029000200090029808
:102BD000006809F061F8002874D1FFE702980068E6
:102BE00080683F21C8F2000108420ED0FFE7029939
:102BF000C86D40F01000C8650299086E40F00100F1
:102C0000086601208DF80F0060E00298006808F067
:102C1000B3FF40F20030C5F2000008F0CBFF000225
:102C200000281CD5FFE740F25400C2F20000006803
:102C3000800942F66351C0F23E51A0FB01108009A9
:102C400000EB40010C2000EB81000090FFE70098B2
:102C500020B1FFE7009801380090F8E7FFE705F0A2
:102C600067FD0190FFE7029800680068C00740BB5D
:102C7000FFE70298006809F00FF828B9FFE702980B
:102C8000006808F079FFFFE705F052FD0199401A4E
:102C9000032815D3FFE7029800680068C00770B9E1
:102CA000FFE70299C86D40F01000C8650299086EF0
:102CB00040F00100086601208DF80F0006E0FFE7F4
:102CC000D1E7FFE700208DF80F00FFE79DF80F0028
:102CD00004B080BDFFE7FEE785B0049000200390BC
:102CE0000499043102913A2101910090FFE7009884
:102CF000019988420BD2FFE702980099415C039842
:102D000008440390FFE7009801300090EFE7039834
:102D100005B0704780B540F25830C2F2000004F0B0
:102D2000BFF880BD80B540F2B830C2F2000004F0B8
:102D3000B7F880BD84B003900398006840F2074163
:102D4000C4F20201884206D8FFE740F60000C4F250
:102D50000200009005E040F62000C4F2020000905E
:102D6000FFE7009802900398007808384CF6CD41B0
:102D7000CCF6CC41A0FB0110000901900298039908
:102D80004A6C22F0030210448864039940F68000E4
:102D9000C4F20200C864019800F01F0101208840BD
:102DA0000399086504B0704782B0019001980079DA
:102DB0000090009940F6FC00C4F2020000EB810094
:102DC00001994865019940F64010C4F202008865F7
:102DD0000098013800F01F01012088400199C86562
:102DE00002B0704784B0039002910192009303985F
:102DF000C16C006D48600398406D28B1FFE70398EF
:102E0000816DC06D4860FFE70398016C406C00F075
:102E10001F020120904048600098039909684860AB
:102E200003988068102809D1FFE701980399096881
:102E30008860029803990968C86008E002980399BD
:102E400009688860019803990968C860FFE704B0C1
:102E5000704700007047000080B584B0039003986D
:102E6000007820B9FFE702A809F056F800E0FFE774
:102E70000298039908610399087ACA685043D1ED12
:102E8000010A91ED040A0CF051FF039880ED070A46
:102E9000039890ED040A90ED051A30EE410A80ED9A
:102EA000060A039890ED060A9FED321AB4EE410A25
:102EB000F1EE10FA0ADDFFE7039890ED060A9FEDA8
:102EC000301A30EE010A80ED060A15E0039890ED05
:102ED000060A9FED291AB4EE410AF1EE10FA0ADA59
:102EE000FFE7039890ED060A9FED241A30EE010AE1
:102EF00080ED060AFFE7FFE7039890ED060A9FEDD5
:102F0000211A20EE010A8DED010A03990869486132
:102F10009DED010A9FED1C1A20EE010A039890ED29
:102F2000081A9FED1A2A21EE021A30EE010A80EDEE
:102F3000080A40F23010C2F200000078192810DBB5
:102F4000FFE740F23011C2F2000118200870039828
:102F500090ED061A90ED090A30EE010A80ED090A9B
:102F6000FFE740F23011C2F200010878013008702A
:102F700004B080BDDB0F4940DB0F49C0DB0FC94007
:102F8000DB0FC9C000401C46CDCCCC3E9A99193FFE
:102F900080B586B005908DF8131003928DF80B3034
:102FA0008DED010A9DF80B0018B9FFE708F0DEFF70
:102FB00000E0FFE79DF80B00059908709DF81300ED
:102FC0000599087203980599C860019805994860A9
:102FD00006B080BD81B0EFF3108072B60090FFE7BD
:102FE000FEE7000080B540F21840C2F2000004F095
:102FF00059FC80BD83B002904AF20040C4F2000048
:10300000009000980299086402980068D0F8800047
:1030100020F4F810029A1168526B40EA0240C1F89D
:103020008000009870300299486402980068D0F8D7
:10303000800020F07060029A1168926B40EA026092
:10304000C1F880000098B03002998864009800F5BB
:10305000C4700299C864009800F518700299086558
:10306000009800F51E700299486500980190FFE7EE
:103070000198009901F55471884208D2FFE701993F
:1030800000200860FFE7019804300190F0E703B0EA
:103090007047000080B588B040F21840C2F20000CE
:1030A0000121002204F0F4F810B1FFE7FFE7FEE78A
:1030B00040F21840C2F200000221002204F0E8F8B9
:1030C00010B1FFE7FFE7FEE7002002900390022126
:1030D0000491012105910690079040F21840C2F238
:1030E000000002A904F028FA10B1FFE7FFE7FEE7AD
:1030F00068460023036040F21840C2F2000002223A
:10310000114604F075FA10B1FFE7FFE7FEE740F261
:103110001840C2F2000004F039FF08B080BD000082
:1031200088B007900691059204930698406848B9C4
:10313000FFE70698016882680069104340EA814011
:10314000039009E00698016882680069104308430B
:1031500040F080400390FFE70698D0F820C0C16897
:1031600042698369C06940EA0C601843104340EA31
:10317000014002900798406D049901EBC10100EBFA
:10318000C1000190039801990860019804300190F2
:103190000298019908600198043001900020009085
:1031A000FFE700980699CA6841F6A051C0F60101F0
:1031B000895C88420DD2FFE7059800994058019933
:1031C0000860019804300190FFE7009804300090F7
:1031D000E7E708B07047000080B584B00390029123
:1031E00000200190FFE7019803280EDCFFE7039819
:1031F000019A1044407840F23111C2F20001885423
:10320000FFE7019801300190EDE740F23110C2F282
:1032100000000BF0ADFA029880ED000A03980078E8
:103220000299087104B080BD80B58CB00A900A98EC
:10323000C07801460091082822D80099DFE801F003
:1032400005080B0E1114171A1D00002004901BE036
:103250000120049018E00220049015E0032004905F
:1032600012E0042004900FE0052004900CE00620FA
:10327000049009E00720049006E00820049003E091
:1032800000208DF82F0029E00A9800880190002086
:1032900002900390059006900790089009900A9874
:1032A0008078012804D1FFE74FF00050039002E03E
:1032B00000200390FFE70A98021D40F21840C2F276
:1032C000000001A904F0EAF820B9FFE701208DF819
:1032D0002F0003E000208DF82F00FFE79DF82F005E
:1032E0000CB080BD81B040F27C00C2F20000007FD3
:1032F0008DF803009DF80300012805D0FFE79DF835
:10330000030003281FD1FFE742F20001C4F20201CB
:10331000086820F400700860FFE742F20001C4F280
:103320000201086840F400600860086820F400604A
:103330000860FFE742F20001C4F20201086840F4AD
:1033400000700860FFE79DF80300022805D0FFE742
:103350009DF80300032817D1FFE7FFE742F20001C1
:10336000C4F20201086840F480500860086820F444
:1033700080500860FFE742F20001C4F202010868D1
:1033800040F480600860FFE740F27C01C2F2000177
:103390000020087701B0704781B000909DF80000D0
:1033A000C00748B1FFE742F21401C4F20201086805
:1033B00040F004000860FFE742F21401C4F2020189
:1033C000086840F48030086001B0704782B0019016
:1033D000009142F21401C4F20201086820F4FC706A
:1033E0009DF8042040EAC2000860086840F002002E
:1033F0000860086840F48030086002B07047000040
:1034000084B003900193009242F21401C4F20201CD
:10341000086840F001000860009803990860BFF355
:103420006F8F01980399486004B0704789B0059088
:10343000049140208DF80F000598029004980190A7
:1034400042F21401C4F20201086840F480200860CE
:10345000EFF31080069006980090EFF3108072B69C
:103460000790FFE70198006802990860029804300D
:1034700002900198043001909DF80F0001388DF8FA
:103480000F00FFE79DF80F000028EBD1FFE7009841
:103490000890089880F3108809B0704780B584B010
:1034A000029005F045F90190FFE742F21000C4F2E6
:1034B00002000068C00300280DD5FFE705F038F9C9
:1034C0000199401A0299884204D9FFE703208DF838
:1034D0000F0058E0E9E742F21000C4F20200006871
:1034E0004CF2FA3108400090009860B3FFE7009A70
:1034F00040F27C01C2F20001486810434860FFE7D7
:103500009DF8030010F0C00F0BD0FFE7009800F00B
:10351000404242F21801C4F20201086810430860F8
:10352000FFE70098800048B1FFE7009820F0404096
:1035300042F21001C4F202010860FFE7FFE7012038
:103540008DF80F001FE0012040B9FFE742F218009C
:10355000C4F202000068C00740B910E042F2100057
:10356000C4F202000068C00748B1FFE7FFE742F27B
:103570001001C4F2020101200860FFE7FFE700200C
:103580008DF80F00FFE79DF80F0004B080BD00002C
:103590002DE9F04F91B040F2C000C2F20000694640
:1035A0001091486340F26460C2F20000086340F288
:1035B000E020C2F20000C86240F25C00C2F20000EB
:1035C000886240F25800C2F20000486240F29C005B
:1035D000C2F20000086240F27400C2F20000C8614A
:1035E00040F27800C2F20000886140F26C00C2F242
:1035F0000000486140F27000C2F20000086140F231
:103600006800C2F20000C86040F2B800C2F20000D8
:10361000886040F2B000C2F20000486040F2B4009E
:10362000C2F20000086040F2A800C2F2000040F2BE
:10363000A401C2F2000140F2A002C2F2000240F274
:10364000AC03C2F2000300F0D3F800F0A5F80028A4
:1036500040F09E80FFE740F2A80BC2F2000B002072
:10366000C4F2A010CBF8000040F2A40AC2F2000A93
:10367000CAF8000040F2A009C2F200094CF6CD41A0
:10368000C3F6CC51C9F8001040F2AC08C2F20008F1
:103690000022C4F2C832C8F8002040F2B407C2F2D7
:1036A0000007396040F2B006C2F200064FF07C53CA
:1036B000336040F2B805C2F200054FF08041296046
:1036C00040F26804C2F200040021C4F2C821216063
:1036D00040F2700EC2F2000ECEF8003040F26C02E2
:1036E000C2F20002106040F27801C2F200010B60E9
:1036F00040F27403C2F200030F93186040F2646357
:10370000C2F200030020187040F2C00CC2F2000C9C
:103710000020C4F24010CCF800000F989BED000A86
:10372000DAED000A99ED001AD8ED001A97ED002A9B
:10373000D6ED002A95ED003AD4ED003A9EED004A10
:10374000D2ED004A91ED005AD0ED005A40F29C00B3
:10375000C2F20000007840F25801C2F2000109688C
:1037600040F25C02C2F2000292ED006A40F2E022F6
:10377000C2F2000212781B789CED007ABDEEC77A87
:1037800017EE10CAEE46CEF800C000F0DDF8FFE7F5
:1037900011B0BDE8F08F000080B584B04FF6000096
:1037A000C0F6010002900298006841F23421CAF686
:1037B000CD31884204D0FFE700208DF80F0012E0E1
:1037C0000298FFF789FA01900298D0F84300019916
:1037D000884204D0FFE700208DF80F0003E00120AD
:1037E0008DF80F00FFE79DF80F0004B080BD0000CA
:1037F00080B586B0DDF854C0DDF850C0DDF84CC0AF
:10380000DDF848C0DDF844C0DDF840C0DDF83CC05C
:10381000DDF838C0DDF834C0DDF830C0DDF82CC08C
:10382000DDF828C0DDF824C0DDF820C00590049143
:1038300003920293FFF7B0FF00285AD0FFE74FF63C
:103840000000C0F6010001900198406805990860E9
:1038500001988068049908600198C068039908601D
:103860000198006902990860019840690899086008
:1038700001988069099908600198C0690A990860EF
:103880000198006A0B9908600198406A0C990860D9
:103890000198806A0D9908600198C06A0E990860C5
:1038A0000198006B0F990860019890F83400109906
:1038B00008700198D0F83500119908600198D0F887
:1038C000390012990860019890F83D00139908702A
:1038D000019890F83E00149908700198D0F83F00C4
:1038E00000EE100ABDEEC00A10EE100A159908701D
:1038F00028E0059900200090086004990860039969
:1039000008600299086008990860099908600A9996
:1039100008600B9908600C9908600D9908600E9971
:1039200008600F990860109A01211170119A1160B6
:1039300012990860139908701499087015990C2051
:103940000870FFE706B080BD80B5ACB084462E9805
:103950008DED2A0ACDED290A8DED281ACDED271A15
:103960008DED262ACDED252A8DED243ACDED233A95
:103970008DED224ACDED214A8DED205ACDED1F5A15
:103980008DF87BC01D918DED1C6A8DF86F208DF830
:103990006E308DF86D0000200090169041F23420BA
:1039A000CAF6CD3004902A98059029980690289858
:1039B0000790279808902698099025980A902498AF
:1039C0000B9023980C9022980D9021980E9020989F
:1039D0000F901F9810909DF87B008DF844001D9863
:1039E000CDF845001C98CDF849009DF86F008DF882
:1039F0004D009DF86E008DF84E009DF86D0000EEB4
:103A0000100AB8EE400A10EE100ACDF84F0004A8D4
:103A1000FFF762F9CDF8530004F07CFC0098179092
:103A2000012018907F2119911A9017A816A904F067
:103A3000F1FA8DF86C009DF86C0038B1FFE704F0E6
:103A4000BBFB9DF86C008DF8AF00A9E004A80390C3
:103A50000920029000200190FFE701980299884216
:103A60001CD2FFE7019B4FF60000C0F6010000EBFF
:103A7000C301039A02EBC30052F8332043680020CD
:103A800004F0B2FB8DF86C009DF86C0008B1FFE704
:103A900004E0FFE7019801300190DEE704F08CFBC1
:103AA0009DF86C00002876D1FFE72A9840F2A80123
:103AB000C2F200010860299840F2A401C2F200019C
:103AC0000860289840F2A001C2F20001086027981F
:103AD00040F2AC01C2F200010860269840F2B40145
:103AE000C2F200010860259840F2B001C2F2000164
:103AF0000860249840F2B801C2F2000108602398DF
:103B000040F26801C2F200010860229840F27001A0
:103B1000C2F200010860219840F26C01C2F200017B
:103B20000860209840F27801C2F2000108601F98F6
:103B300040F27401C2F2000108609DF87B0040F27F
:103B40009C01C2F2000108701C9840F25C01C2F2B4
:103B5000000108601D9840F25801C2F2000108609F
:103B60009DF86F0040F2E021C2F2000108709DF85C
:103B70006E0040F26461C2F2000108709DF86D00B1
:103B800000EE100AB8EE400A40F2C000C2F2000097
:103B900080ED000AFFE79DF86C008DF8AF00FFE7AD
:103BA0009DF8AF002CB080BD81B0009001B070478F
:103BB00080B5C2B02290219100208DF883001B9027
:103BC0001A902298406908B1FFE7FFE72198C06882
:103BD0000021C4F27F01884201D0FFE700E0FFE747
:103BE000FFE7229890F85800012805D1FFE702204E
:103BF0008DF88F0000F0B7BC2299012081F85800A1
:103C0000FFE7FFE72298406928B1FFE72198006AA3
:103C100001282FD1FFE721984068092829D1FFE723
:103C20002198806A68B1FFE721990A68886AC96AA1
:103C300002F0F84200F07C0040EA524008431A903B
:103C400006E02198006800F0F840400C1A90FFE769
:103C500022980068C06C44F20001C0F21041084094
:103C60001A99084322990968C8641A9822994866E3
:103C7000FFE747E02298806EE0B9FFE72198006AED
:103C8000229988662299002048662198806A58B156
:103C9000FFE72199086A8A6AC96A013802F07C0242
:103CA000104308431A9004E02198006A01381A90E2
:103CB000FFE7FFE7219908684968C0F3846001F0D5
:103CC0001F0100FA01F11A9808431A902299886E90
:103CD000013888661A9A2299486E104348662298DD
:103CE000806E70B9FFE722980068C06C44F2000152
:103CF000C0F210410840229A1168526E1043C86405
:103D0000FFE7FFE72298006807F09CFF30BBFFE762
:103D1000219890F8250090B9FFE722980068C068C4
:103D200020F44010219991F8242091F8261049059B
:103D300041EA0251084322990968C8600DE02298BF
:103D40000068C06820F44010219991F8261040EADC
:103D5000415022990968C860FFE7FFE72298006890
:103D600007F0BAFF1D902298006807F06BFF1C90C7
:103D70001D98002840F00982FFE71C98002840F0B9
:103D80000482FFE72198806A20B1FFE72198C06A8A
:103D9000A8B9FFE7219890F82500012807D1FFE78F
:103DA00022980168C86840F00070C86006E0229858
:103DB0000168C86820F00070C860FFE716E021982D
:103DC00090F82500012809D1FFE72299C86D40F03D
:103DD0002000C86501208DF8830006E02298016864
:103DE000C86820F00070C860FFE7FFE7219890F8EE
:103DF0003000012810D1FFE722980068006920F404
:103E0000FF71219A506B926B1043084340F00200FF
:103E100022990968086106E022980168086920F083
:103E200002000861FFE721988068B0F1004F0ED1D1
:103E3000FFE72298006821990968002207F060FFD7
:103E4000229800684FF0004108F006F80CE0229834
:103E50000068219A1168926807F052FF2298006862
:103E6000002107F0F9FFFFE72198406922990968CE
:103E7000C96801F01801890888401F9021980069DD
:103E800004281CD0FFE72298006821990A68096974
:103E90001F9B07F087FF22980068219A1169926999
:103EA00007F0B2FF22980068219A1169127F013A47
:103EB000B2FA82F25209520607F092FF64E12298A8
:103EC0000068002107F09EFE400348B9FFE72298F2
:103ED0000068002107F096FEC0F38460199018E096
:103EE00022980068002107F08DFE90FAA0F024903F
:103EF000249820B9FFE720208DF8970005E024984A
:103F0000B0FA80F08DF89700FFE79DF897001990C0
:103F1000FFE71998189021980068400330B9FFE72F
:103F200021980068C0F38460179015E0219800681C
:103F300090FAA0F02690269820B9FFE720208DF86F
:103F40009F0005E02698B0FA80F08DF89F00FFE70B
:103F50009DF89F001790FFE718981799884207D19E
:103F6000FFE7229800680022114607F061FFFFE793
:103F700022980068012107F045FE400348B9FFE799
:103F800022980068012107F03DFEC0F3846016907E
:103F900018E022980068012107F034FE90FAA0F0A2
:103FA0002890289820B9FFE720208DF8A70005E089
:103FB0002898B0FA80F08DF8A700FFE79DF8A700D9
:103FC0001690FFE71698159021980068400330B9C5
:103FD000FFE721980068C0F38460149015E02198F1
:103FE000006890FAA0F02A902A9820B9FFE72020D4
:103FF0008DF8AF0005E02A98B0FA80F08DF8AF0098
:10400000FFE79DF8AF001490FFE7159814998842D8
:1040100007D1FFE7229800680121002207F008FF7E
:10402000FFE722980068022107F0ECFD400348B941
:10403000FFE722980068022107F0E4FDC0F38460E6
:10404000139018E022980068022107F0DBFD90FA37
:10405000A0F02C902C9820B9FFE720208DF8B70015
:1040600005E02C98B0FA80F08DF8B700FFE79DF8D6
:10407000B7001390FFE7139812902198006840034F
:1040800030B9FFE721980068C0F38460119015E013
:104090002198006890FAA0F02E902E9820B9FFE7A2
:1040A00020208DF8BF0005E02E98B0FA80F08DF842
:1040B000BF00FFE79DF8BF001190FFE7129811992C
:1040C000884207D1FFE7229800680221002207F00A
:1040D000AFFEFFE722980068032107F093FD40033D
:1040E00048B9FFE722980068032107F08BFDC0F371
:1040F0008460109018E022980068032107F082FD88
:1041000090FAA0F03E903E9820B9FFE720208DF86D
:10411000FF0005E03E98B0FA80F08DF8FF00FFE761
:104120009DF8FF001090FFE710980F90219800680D
:10413000400330B9FFE721980068C0F384600E9017
:1041400015E02198006890FAA0F04090409820B9BE
:10415000FFE720208DF8070105E04098B0FA80F0D5
:104160008DF80701FFE79DF807010E90FFE70F9814
:104170000E99884207D1FFE72298006803210022A8
:1041800007F056FEFFE7FFE7FFE72298006807F019
:104190008BFD002840F04481FFE722980068219AB7
:1041A0001168D26807F0C8FD2198C0680021C4F2E8
:1041B0007F01884240F03381FFE7229800680D902C
:1041C00021980068400330B9FFE721980068C0F3E8
:1041D00084600C9015E02198006890FAA0F03C9063
:1041E0003C9820B9FFE720208DF8F70005E03C98C7
:1041F000B0FA80F08DF8F700FFE79DF8F7000C901B
:10420000FFE70C98013000F01F0009287DD8FFE778
:1042100021980068400330B9FFE721980068C0F397
:1042200084600B9015E02198006890FAA0F03A9015
:104230003A9820B9FFE720208DF8EF0005E03A9882
:10424000B0FA80F08DF8EF00FFE79DF8EF000B90DB
:10425000FFE70B98013000F01F0080060A902198BC
:104260000068400330B9FFE721980068C0F384601C
:10427000099015E02198006890FAA0F038903898DD
:1042800020B9FFE720208DF8E70005E03898B0FA64
:1042900080F08DF8E700FFE79DF8E7000990FFE761
:1042A0000A980999013101F01F0201219140084348
:1042B000089021980068400330B9FFE72198006812
:1042C000C0F38460079015E02198006890FAA0F090
:1042D0003690369820B9FFE720208DF8DF0005E002
:1042E0003698B0FA80F08DF8DF00FFE79DF8DF0028
:1042F0000790FFE708980799013101F01F0101EBD2
:10430000410140EA0150069082E021980068400394
:1043100030B9FFE721980068C0F38460059015E08C
:104320002198006890FAA0F03490349820B9FFE703
:1043300020208DF8D70005E03498B0FA80F08DF891
:10434000D700FFE79DF8D7000590FFE705980130FB
:1043500000F01F008006049021980068400330B9E7
:10436000FFE721980068C0F38460039015E021986E
:10437000006890FAA0F03290329820B9FFE7202030
:104380008DF8CF0005E03298B0FA80F08DF8CF00BC
:10439000FFE79DF8CF000390FFE7049803990131F0
:1043A00001F01F020121914008430290219800680A
:1043B000400330B9FFE721980068C0F384600190A2
:1043C00015E02198006890FAA0F03090309820B95C
:1043D000FFE720208DF8C70005E03098B0FA80F0A4
:1043E0008DF8C700FFE79DF8C7000190FFE702992D
:1043F0000198013000F01F0000EB40020020CFF6D2
:10440000206000EB0250084340F000700690FFE788
:104410000D980699219A926807F072FCFFE7FFE772
:104420002198408848F20801084200F09180FFE797
:1044300040F20030C5F2000007F0C4FB1E90219846
:1044400000680021CCF22131884208D0FFE7219892
:1044500000681021C9F2C001884232D1FFE79DF8FF
:104460007A00000600282CD4FFE722980068B0F1FB
:10447000A04F25D1FFE71E9840F4000140F2003024
:10448000C5F2000007F080FC40F25400C2F20000C8
:104490000068800942F66351C0F23E51A0FB011052
:1044A000800900EB4001182000EB81001B90FFE722
:1044B0001B9820B1FFE71B9801381B90F8E7FFE736
:1044C00045E0219800680021CCF25271884219D150
:1044D000FFE79DF87B00C007A0B9FFE722980068BE
:1044E00040F20011C5F2000188420AD0FFE71E9891
:1044F00040F0807140F20030C5F2000007F044FC4B
:10450000FFE723E0219800680021CCF6843188423F
:104510001AD1FFE79DF87A004006002814D4FFE77F
:104520002298006840F20011C5F2000188420AD0CA
:10453000FFE71E9840F4800140F20030C5F2000011
:1045400007F022FCFFE700E0FFE7FFE7FFE7FFE7F8
:10455000FFE72299002081F85800FFE79DF88300CB
:104560008DF88F00FFE79DF88F0042B080BD0000FE
:1045700080B5CCB04B904B980068B0F1A04F40F0A4
:104580001A81FFE740F2BD70C2F2000000780028F7
:104590007AD1FFE740F23C10C2F20000016801311D
:1045A0000160006818B3FFE740F2EC20C2F200009F
:1045B0000168D1F8803040F24812C2F2000211685E
:1045C000194411600168D1F8843040F25412C2F2EB
:1045D00000021168194411600068D0F8882040F288
:1045E0006011C2F20001086810440860FFE740F261
:1045F0003C10C2F200000068B0F57A7F43D1FFE7BB
:1046000040F24813C2F2000393ED000AB8EE400AEC
:104610009FEDF01A80EE010A40F24410C2F2000051
:1046200080ED000A40F25412C2F2000292ED000A3C
:10463000B8EE400A80EE010A40F25010C2F20000CB
:1046400080ED000A40F26011C2F2000191ED000A13
:10465000B8EE400A80EE010A40F25C10C2F200009F
:1046600080ED000A40F2BD7CC2F2000C01208CF803
:104670000000002018601060086040F23C11C2F297
:1046800000010860FFE795E040F2EC21C2F2000172
:104690000868D0F8802040F24010C2F200000260AA
:1046A00090ED000AB8EE400A40F24410C2F2000059
:1046B00090ED001A30EE410A9FEDC73A80EE030AF2
:1046C0009FEDC62A20EE020AB3EE041A20EE010A7C
:1046D00040F23C60C2F2000080ED000A0A68D2F8A5
:1046E000843040F24C12C2F20002136092ED000AD4
:1046F000B8EE400A40F25012C2F2000292ED004AB7
:1047000030EE440A80EE030A20EE020A20EE010A8F
:1047100080ED010A0968D1F8882040F25811C2F2F0
:1047200000010A6091ED000AB8EE400A40F25C1107
:10473000C2F2000191ED004A30EE440A80EE030A15
:1047400020EE020A20EE010A80ED020A90ED000A36
:1047500020EE000A9FEDA21AB4EE410AF1EE10FA23
:1047600020DCFFE740F23C60C2F2000090ED010A5D
:1047700020EE000A9FED9A1AB4EE410AF1EE10FA0B
:1047800010DCFFE740F23C60C2F2000090ED020A4C
:1047900020EE000A9FED921AB4EE410AF1EE10FAF3
:1047A00007DDFFE740F2BE71C2F20001022008708F
:1047B000FFE7FFE7FFE740F2B820C2F20000FEF794
:1047C0004BFB40F2BE70C2F200000078032809D013
:1047D000FFE740F2BE70C2F200000078042840F00B
:1047E000C680FFE740F28070C2F20000006840F22D
:1047F0005471C2F20001086140F2B820C2F2000018
:10480000406AC86040F2BC70C2F200000078012823
:104810000AD1FFE740F25470C2F2000001219FED7F
:10482000710A07F023FF09E040F25470C2F2000061
:1048300000219FED6C0A07F019FFFFE740F2BC7002
:10484000C2F20000007801280BD1FFE740F254705B
:10485000C2F20000006A40F28C71C2F200010861ED
:104860000AE040F2B870C2F20000006840F28C71B9
:10487000C2F200010861FFE740F2B820C2F2000076
:104880004690016A40F28C70C2F200004190C16013
:10489000012143919FED530A8DED440A07F0E6FE96
:1048A000469890ED070A40F23C60C2F2000040F2E8
:1048B0005061C2F200013E9109F0D6FE3E98439944
:1048C000026840F26860C2F200003D90C26007F0EA
:1048D000D1FA3D9A3E984399526940F25863C2F228
:1048E000000342931A60426840F2C460C2F20000C2
:1048F0003F90C26007F0BEFA3F98429A43999DEDFF
:10490000440A4069506040F28060C2F2000040906A
:10491000002303611268C26007F0A8FE409B419823
:10492000429A43999DED440A1B6A40F2CC7CC2F244
:10493000000CCDF81CC1CCF80030036A40F2DC60FA
:10494000C2F20000459003615268C26007F08EFE1B
:10495000459A46994798126A426091ED070A40F2DB
:10496000C071C2F200010AF0AFFE01F03ABB40F2A2
:10497000BE70C2F200000078052841F0F682FFE721
:1049800040F2BC00C2F200000078002840F0F38042
:10499000FFE740F2CC71C2F200014FF07E50086098
:1049A0000020486040F2A810C2F20000006842F205
:1049B0000F71884226DCFFE740F2CC70C2F20000A3
:1049C00040F2C071C2F200019FED070A0AF07CFEBE
:1049D00031E000BF00007A4400008045333353408B
:1049E0000000804217B7D138000000006F12833AF0
:1049F0000AD7A3BB0AD7A33BDB0FC940920A863F65
:104A0000920A86BF40F2A010C2F2000090ED000AA8
:104A10001FED0A1A30EE010A80ED000A90ED000A3F
:104A200040F2CC70C2F2000040F2C071C2F200014C
:104A30000AF04AFEFFE740F2A810C2F20000016847
:104A4000013101600068B0F5FA5F0BD1FFE740F279
:104A5000B820C2F20000006940F2A411C2F20001C5
:104A60000860FFE740F2A810C2F20000006842F6BA
:104A7000E16188427DDBFFE740F2B820C2F200002E
:104A800090ED040A40F2A410C2F2000090ED001A6A
:104A900030EE410A1FED2A1AB4EE410AF1EE10FA87
:104AA00067DDFFE740F2B820C2F2000090ED040A93
:104AB00040F2A410C2F2000090ED001A30EE410A5C
:104AC0001FED341AB4EE410AF1EE10FA51DAFFE7A5
:104AD00040F2BC01C2F200010120087040F2CC712A
:104AE000C2F2000100203B90086040F2A010C2F228
:104AF00000003A9090ED000A1FED411A80EE010A85
:104B000040F29C10C2F2000080ED000A90ED000A15
:104B10000CF06AF93A9A3B99BDEEC00A10EE103AD1
:104B200040F29C00C2F20000037040F2A813C2F2EF
:104B3000000319601160017840F2B822C2F200024D
:104B40001172027840F63800C2F200003C9041F643
:104B50009761C0F60101FBF77DFC3C98FBF7DAFC9E
:104B60003C9982B240F21450C2F2000006F06AFF93
:104B7000FFE701F0F9B940F2BC00C2F20000007892
:104B8000012840F0CC81FFE740F2CC71C2F2000175
:104B90004FF07E5008600020486040F28C10C2F256
:104BA0000000006842F2107188420DDCFFE740F21D
:104BB000CC70C2F2000040F2C071C2F200011FEDE1
:104BC000760A0AF081FD43E040F28C10C2F2000048
:104BD000006842F21171884217DBFFE740F28C1047
:104BE000C2F20000006844F6206188420DDCFFE755
:104BF00040F2CC70C2F2000040F2C071C2F200017B
:104C00001FED820A0AF060FD21E040F28C10C2F232
:104C10000000006844F62161884217DBFFE740F29C
:104C20008C10C2F20000006847F2305188420DDC5F
:104C3000FFE740F2CC70C2F2000040F2C071C2F255
:104C400000011FED910A0AF03FFDFFE7FFE7FFE7D4
:104C500040F28C10C2F20000006842F22831884213
:104C60000BD1FFE740F2B820C2F20000406A40F2E8
:104C70009011C2F2000108602BE040F28C10C2F2E9
:104C80000000006844F6382188420BD1FFE740F26B
:104C9000B820C2F20000406A40F29411C2F2000152
:104CA000086015E040F28C10C2F20000006847F284
:104CB000481188420BD1FFE740F2B820C2F2000051
:104CC000406A40F29811C2F200010860FFE7FFE776
:104CD000FFE740F28C10C2F2000001680131016070
:104CE000006847F23051884240F01781FFE740F2F8
:104CF0009010C2F2000090ED000A40F29410C2F24F
:104D0000000090ED001AB4EE410AF1EE10FA50DA0C
:104D1000FFE740F29010C2F2000090ED000A40F26E
:104D20009810C2F2000090ED001AB4EE410AF1EEC4
:104D300010FA3EDDFFE740F25801C2F20001012007
:104D40000860086840F2B822C2F200023892D060CF
:104D500040F29C00C2F20000007891ED000AB8EE2B
:104D6000C00A40F29011C2F20001D1ED000A0AF02F
:104D7000DDFF389940F25C00C2F2000080ED000ACD
:104D80000068486040F63800C2F20000399041F6F1
:104D90001861C0F60101FBF75DFB3998FBF7BAFB20
:104DA000399982B240F21450C2F2000006F04AFE75
:104DB000A1E040F29010C2F2000090ED000A40F233
:104DC0009410C2F2000090ED001AB4EE410AF1EE28
:104DD00010FA51DDFFE740F29010C2F2000090EDB2
:104DE000000A40F29810C2F2000090ED001AB4EEF2
:104DF000410AF1EE10FA3FDAFFE740F25801C2F241
:104E000000014FF0FF300860086840F2B822C2F29B
:104E100000023692D06040F29C00C2F2000000789E
:104E200091ED000AB8EEC00A40F29011C2F2000102
:104E3000D1ED000A0AF07AFF369940F25C00C2F226
:104E4000000080ED000A0068486040F63800C2F2B9
:104E50000000379041F6FB51C0F60101FBF7FAFA6A
:104E60003798FBF757FB379982B240F21450C2F2E1
:104E7000000006F0E7FD3DE040F25801C2F20001FB
:104E800001200860086840F2B822C2F200023492A1
:104E9000D06040F29C00C2F20000007891ED000A60
:104EA000B8EEC00A40F29011C2F20001D1ED000A42
:104EB0000AF03CFF349940F25C00C2F2000080ED41
:104EC000000A0068486040F63800C2F200003590E1
:104ED00041F6D851C0F60101FBF7BCFA3598FBF753
:104EE00019FB359982B240F21450C2F2000006F06C
:104EF000A9FDFFE7FFE740F28C11C2F2000100209C
:104F0000086040F2B821C2F20001486240F2BC01E0
:104F1000C2F2000102200870FFE701F024B840F25D
:104F2000BC00C2F200000078022840F0BC81FFE71C
:104F300040F2AC10C2F20000006842F20F718842E9
:104F400012DCFFE740F2CC70C2F200004FF07C515F
:104F500001600021016040F2C071C2F200019FEDCA
:104F6000D60A0AF0B1FB74E040F2AC10C2F20000C5
:104F7000006842F2107188421CDBFFE740F2AC107F
:104F8000C2F20000006844F61F61884212DCFFE7AD
:104F900040F2CC70C2F200004FF07E51016000215F
:104FA000416040F2C071C2F200019FEDC30A0AF0F5
:104FB0008BFB4DE040F2AC10C2F20000006844F6FA
:104FC000206188421CDBFFE740F2AC10C2F2000017
:104FD000006847F22F51884212DCFFE740F2CC70A4
:104FE000C2F200004FF07F5101600021416040F2A9
:104FF000C071C2F200019FEDB00A0AF065FB26E025
:1050000040F2AC10C2F20000006847F23051884212
:105010001CDBFFE740F2AC10C2F20000006849F66A
:105020003F41884212DCFFE740F2CC70C2F2000040
:105030004FF0804101600021416040F2C071C2F236
:1050400000019FED9D0A0AF03FFBFFE7FFE7FFE746
:10505000FFE740F23C60C2F2000040F24861C2F259
:105060000001329109F0AEFA329890ED000A90ED0D
:10507000011A20EE000A21EE011A30EE010A0BF0AF
:10508000C9FF40F22070C2F20000339080ED030AA5
:10509000012106F0EFFE3398406940F26061C2F2F0
:1050A0000001086040F2AC10C2F20000016801315A
:1050B0000160006842F21C5188421DD1FFE740F2B6
:1050C0006060C2F2000000680CF094FC41EC100B30
:1050D0009FED7B1B51EC110B53EC102B0CF06CF97A
:1050E00041EC100B51EC100B0CF020F940F2B01118
:1050F000C2F200010860D4E040F2AC10C2F200003D
:10510000006844F62C4188421DD1FFE740F2606000
:10511000C2F2000000680CF06DFC41EC100B9FED3A
:105120006A1B51EC110B53EC102B0CF045F941ECC0
:10513000100B51EC100B0CF0F9F840F2B411C2F264
:1051400000010860ACE040F2AC10C2F20000006860
:1051500047F23C3188421DD1FFE740F26060C2F265
:10516000000000680CF046FC41EC100B9FED581B52
:1051700051EC110B53EC102B0CF01EF941EC100B01
:1051800051EC100B0CF0D2F840F2B811C2F2000151
:10519000086084E040F2AC10C2F20000006849F6FA
:1051A0004C2188421DD1FFE740F26060C2F200004E
:1051B00000680CF01FFC41EC100B9FED471B51ECFD
:1051C000110B53EC102B0CF0F7F841EC100B51ECD9
:1051D000100B0CF0ABF840F2BC11C2F200010860F9
:1051E0005CE040F2AC10C2F20000006849F64041B9
:1051F000884252D1FFE740F2BC01C2F20001032015
:10520000087040F2AC11C2F200010020086040F2C8
:10521000B010C2F2000090ED000A40F2B410C2F2E9
:10522000000090ED001A30EE010A40F2B810C2F210
:10523000000090ED001A30EE010A40F2BC10C2F2FC
:10524000000090ED001A30EE010AB1EE001A80EE77
:10525000010A40F28470C2F2000080ED000A00688A
:105260000CF0C8FB41EC100B53EC102B40F638004F
:10527000C2F20000319041F67171C0F60101FBF7F6
:10528000E9F83198FBF746F9319982B240F21450AF
:10529000C2F2000006F0D6FBFFE7FFE7FFE7FFE7FB
:1052A000FFE700F05FBE40F2BC00C2F200000078F1
:1052B000032840F0288115E00000000000BF00BF77
:1052C000000000000000E03F000000000000F03F90
:1052D000000000000000F83F000000000000004057
:1052E0007C59C44540F28010C2F200003090006842
:1052F00046F26761C6F2666150FB01F2911001EB64
:10530000D27101EB8101A0EB410140F27C10C2F2AD
:1053100000000160016840F22800C2F2000000EBCA
:10532000810090ED000AB1EE001A20EE010AB7EEFE
:10533000001A30EE010A40F2CC70C2F2000080ED9B
:10534000000A0021416040F2C071C2F200011FED6D
:10535000260A8DED2F0A0AF0B7F99DED2F0A40F2CB
:105360003C60C2F2000040F25061C2F2000109F05C
:105370007BF930980068B0F57A7F6DDBFFE740F28B
:10538000C011C2F2000191ED000A40F25062C2F277
:10539000000292ED001A40F27C10C2F20000D0F838
:1053A00000C040F20003C2F2000303EB8C0393ED54
:1053B000002A21EE021A30EE010A81ED000A40F2C5
:1053C0007011C2F2000191ED000A92ED001A03681B
:1053D00040F22802C2F2000202EB830292ED002AA0
:1053E00021EE021A30EE010A81ED000A0068092858
:1053F00031D1FFE740F2C010C2F200002D9090EDD5
:10540000000A20EE000A40F27010C2F200002E9056
:1054100090ED001A21EE011A30EE010A0BF0FAFDB0
:10542000B1EE041A80EE010A40F2AC60C2F2000054
:105430002C9080ED030A012106F01CFD2C982D9A7A
:105440002E99406940F26C13C2F2000318600020EC
:1054500010600860FFE7FFE740F28010C2F2000032
:10546000016801310160006844F62061884248D13A
:10547000FFE740F26C10C2F2000090ED000A1FED51
:10548000681A20EE011AB1EE000A80EE010A40F21D
:10549000DC10C2F2000080ED000A00680CF0AAFAED
:1054A00041EC100B53EC102B40F63800C2F2000018
:1054B0002B9041F64B61C0F60101FAF7CBFF2B9818
:1054C000FBF728F82B9982B240F21450C2F2000088
:1054D00006F0B8FA40F2BC01C2F2000104200870E4
:1054E00040F28011C2F200010020086040F2C011B9
:1054F000C2F20001086040F27011C2F200010860BF
:10550000FFE700F02EBD40F2BC00C2F200000078C0
:10551000042840F07581FFE740F28810C2F20000D5
:105520002A90006846F26761C6F2666150FB01F29C
:10553000911001EBD27101EB8101A0EB410040F22F
:105540008411C2F20001086040F2CC70C2F2000087
:105550004FF07E5202600A6840F22801C2F2000158
:1055600001EB820191ED000AB1EE001A20EE010A72
:1055700080ED010A40F2C071C2F200011FEDB20AD3
:105580008DED290A0AF0A0F89DED290A40F23C6051
:10559000C2F2000040F25061C2F2000109F064F86A
:1055A0002A980068B0F57A7F6DDBFFE740F2C01102
:1055B000C2F2000191ED000A40F25062C2F2000214
:1055C00092ED011A40F28410C2F20000D0F800C03F
:1055D00040F20003C2F2000303EB8C0393ED002AB8
:1055E00021EE021A30EE010A81ED000A40F270113C
:1055F000C2F2000191ED000A92ED011A036840F237
:105600002802C2F2000202EB830292ED002A21EE90
:10561000021A30EE010A81ED000A0068092831D132
:10562000FFE740F2C010C2F20000279090ED000AA0
:1056300020EE000A40F27010C2F20000289090EDB7
:10564000001A21EE011A30EE010A0BF0E3FCB1EE74
:10565000041A80EE010A40F20870C2F2000026909F
:1056600080ED030A012106F005FC2698279A289967
:10567000406940F27413C2F2000318600020106009
:105680000860FFE7FFE740F28810C2F200000168FF
:1056900001310160006844F62061884240F0AF802B
:1056A000FFE740F27410C2F2000090ED000A1FED17
:1056B000F41A20EE011AB1EE000A80EE010A40F25F
:1056C000E010C2F20000209080ED000A00680CF0AB
:1056D00091F941EC100B53EC102B40F63800C2F25C
:1056E00000001F9041F65E61C0F60101FAF7B2FEBC
:1056F0001F98FAF70FFF1F9982B240F21450C2F2BE
:10570000000006F09FF9209B40F2DC10C2F200007E
:1057100090ED000A9FEDED1A20EE010A40F27001B3
:10572000C2F2000181ED000A40F28472C2F200026E
:1057300092ED000A20EE010A40F26C00C2F2000075
:1057400080ED000A93ED000A20EE010A40F2780392
:10575000C2F20003219383ED000A92ED000A20EECD
:10576000010A40F27402C2F20002229282ED000AA3
:1057700091ED000AD0ED000A40F2C000C2F2000034
:10578000239090ED001A9FEDD22A8DED242AC1EED0
:10579000021A40F28060C2F200009FEDCE1A8DED39
:1057A000251A06F0E3FF219A229923989DED243AC9
:1057B0009DED251A92ED000AD1ED000A90ED002A28
:1057C000C2EE031A40F2DC60C2F2000006F0CEFF27
:1057D00040F2BC01C2F200010520087040F28811BD
:1057E000C2F200010020086040F2C011C2F20001C4
:1057F000086040F27011C2F200010860FFE7AFE3F9
:1058000040F2BC00C2F200000078052840F0FC80A5
:10581000FFE740F2CC70C2F20000002101604FF0BF
:105820008141416040F2B821C2F20001199191ED2D
:10583000070A40F2C071C2F2000109F045FF199851
:1058400090ED070A40F23C60C2F2000040F2506165
:10585000C2F200011B9108F007FF1B98016840F29B
:105860006860C2F200001A90C16001211C9106F02C
:1058700001FB1A9A1B981C99526940F25863C2F2B4
:1058800000031E931A60426840F2C460C2F2000036
:105890001D90C26006F0EEFA1D981E99406948609E
:1058A00040F26810C2F20000016801310160006836
:1058B000B0F57A7F5ADBFFE740F29C00C2F20000AD
:1058C000007800EE100AB8EEC00A40F2B820C2F22A
:1058D000000090ED081A20EE010A10EE100A0CF0FC
:1058E00089F841EC100B51EC100B9FED7B0B52EC47
:1058F000103BD20F62F3DF7141EC100B51EC100B37
:105900000BF014FD014640F26410C2F20000016089
:1059100040F28471C2F2000191ED000A40F2586138
:10592000C2F2000191ED003A91ED011A20EE011A48
:10593000B1EE000A30EE410A90ED001A40F2DC10A0
:10594000C2F2000090ED002A21EE022A22EE032A84
:1059500030EE420A80EE010A40F23C70C2F20000D2
:1059600080ED030A012106F085FAFFE740F2681096
:10597000C2F20000006849F6580188420BD1FFE7E7
:1059800040F23C70C2F20000406940F23871C2F24D
:1059900000010860FFE740F26810C2F200000068F2
:1059A00049F6404188422ED1FFE740F26811C2F229
:1059B00000010020086040F23870C2F20000006868
:1059C0000CF018F841EC100B53EC102B40F638009B
:1059D000C2F20000189041F67161C0F60101FAF7B9
:1059E00039FD1898FAF796FD189982B240F21450D2
:1059F000C2F2000006F026F840F2BC01C2F200013B
:105A000006200870FFE7AAE240F2BC01C2F20001E2
:105A1000062008700020002840F0A082FFE740F236
:105A20007810C2F20000006842F20F71884237DC41
:105A3000FFE740F2CC70C2F20000002101604FF09D
:105A40008141416040F2B821C2F20001159191ED0F
:105A5000070A40F2C071C2F2000109F035FE159844
:105A600090ED070A40F23C60C2F2000040F2506143
:105A7000C2F20001169108F0F7FD1698416840F255
:105A8000C460C2F200001790C160012106F0F2F973
:105A90001798406940F25861C2F200014860B8E0CE
:105AA00040F27810C2F20000006842F210718842A1
:105AB000C0F2AE80FFE740F27810C2F2000000684A
:105AC00047F22F51884200F3A38013E00000C84240
:105AD000D7B3DD3F00000000000000000000000020
