:020000040800F2
:1000000068150020A90200081D810008B1780008C9
:1000100019810008852100081990000800000000DF
:100020000000000000000000000000004582000801
:100030007922000800000000F98100087982000898
:10004000C3020008C3020008C3020008C30200087C
:10005000C3020008C3020008C3020008C30200086C
:10006000C3020008C3020008C3020008C30200085C
:10007000C30200089D210008AD210008C30200084A
:10008000C302000800000000F51F0008C3020008BA
:10009000C3020008A5230008C3020008C302000829
:1000A000C3020008C3020008C3020008C30200081C
:1000B00001830008C3020008C3020008C30200084D
:1000C000C3020008C3020008C3020008C3020008FC
:1000D000C3020008C3020008C30200080990000818
:1000E000C3020008C3020008C3020008C3020008DC
:1000F000C3020008C3020008C30200080000000099
:1001000000000000C302000800000000C302000855
:10011000C302000800000000C3020008C302000878
:10012000C3020008C3020008C3020008C30200089B
:10013000C30200080000000000000000C302000825
:10014000C3020008C3020008000000000000000015
:10015000000000000000000000000000000000009F
:10016000000000000000000000000000C3020008C2
:10017000C3020008000000000000000000000000B2
:1001800000000000C30200080000000000000000A2
:10019000000000000000000000000000000000005F
:1001A0000000000000000000C3020008C3020008B5
:1001B000C3020008C3020008C302000800000000D8
:1001C00000000000C3020008000000000000000062
:1001D000C3020008C302000800F002F800F055F85E
:1001E0000AA090E8000C82448344AAF10107DA4592
:1001F00001D100F04AF8AFF2090EBAE80F0013F08F
:10020000010F18BFFB1A43F00103184750C6000046
:1002100070C60000103A24BF78C878C1FAD85207D7
:1002200024BF30C830C144BF04680C607047000070
:100230000023002400250026103A28BF78C1FBD8EF
:10024000520728BF30C148BF0B60704766290CF0C9
:100250007E80642900F0FE80732900F090860020E3
:1002600070471FB50CF02DF801F080F90400002054
:1002700000210BF0ADFD401C6060002000210BF060
:1002800091FDE0601FBD10B510BD01F049FC1146A5
:10029000FFF7E7FF0AF0ACF901F09AFE03B4FFF7AD
:1002A000F2FF03BC01F09EFE094880470948004761
:1002B000FEE7FEE7FEE7FEE7FEE7FEE7FEE7FEE716
:1002C000FEE7FEE704480549054A064B7047000073
:1002D000ED820008D9010008680900206815002097
:1002E000680D0020680D002053EA020C00F06980C0
:1002F0002DE9F04B4FF00006002B1FBFB3FA83F53A
:1003000003FA05F424FA05F65E4012BF1643B2FA6A
:1003100082F502FA05F4C5F120051EBF22FA05FC9C
:1003200044EA0C04203556EA044C4FEA144418BF42
:10033000641C4FF000084FF00009904271EB030C71
:1003400039D3002919BFB1FA81F701FA07F6B0FADB
:1003500080F700FA07F6C7F120071EBF20FA07FC56
:1003600046EA0C062037B6FBF4FCA7EB0507103F66
:1003700007F01F0BCBF120062CFA06F60CFA0BFB4C
:1003800044BFB3460026202FA4BF5E464FF0000BAB
:100390005BEA060C08BF4FF0010B19EB0B0948EBA9
:1003A0000608ABFB027C06FB02CC0BFB03CCC01B9C
:1003B00071EB0C01C1E70B46024641464846BDE8D9
:1003C000F08B13B5084318BF4FF0FF300146AFF371
:1003D0000080BDE81C4070470FB41CB5074B06AA4F
:1003E0007B4469460090059800F09FFD0020694617
:1003F00000F0AEFD1CBC5DF814FB00006D0B0000AE
:1004000070B50C460546012A05D02878800600D52F
:10041000EA69002302E0012305E05B1C934202D25B
:10042000E05C0028F9D1A869E618C01AA861286A1A
:10043000184428622846AFF3008004E0D5E9012182
:1004400014F8010B9047B442F8D32846AFF300806C
:1004500070BD00002DE9F0410646002410687529A2
:10046000314616A510D0AFF30080002802DA4042D2
:1004700013A507E031688A0701D512A502E04907F4
:1004800004D511A5012401E0AFF3008000210A2268
:1004900006F1240709E0B0FBF2FCB0FBF2F302FB2B
:1004A0001C00303078541846491C0028F3D12346EC
:1004B0002A463046BDE8F04100F0CABA000000000C
:1004C0002D0000002B000000200000002DE9F04767
:1004D0004FF0000A89460446C0F820A02046E16893
:1004E0008847002876D0252806D0D4E901219047F6
:1004F000206A401C2062F1E7E16820460025884719
:10050000C4F81CA006460027C4F818A02A2E09D05B
:1005100030460BF0F7FB38B304EB8708303EC8F8E1
:10052000186019E059F8041B204604EB870291611A
:10053000E1688847012F064618D1E069002820DAD3
:1005400025F020051DE0D8F8180000EB800006EB30
:1005500040003038C8F818002046E1688847064651
:100560000BF0D0FB0028EED1012F0AD02E2E08D19F
:100570002046E16888477F1C0646022F45F020058B
:10058000C4DBA069002803DA404245F00105A06100
:10059000E80701D025F01005B6B1A6F141001928F1
:1005A00002D8203645F400654A463146204625608B
:1005B0004D46FFF74BFE58B1012806D0ED1D25F042
:1005C000070000F1080989E704E005F1040985E75F
:1005D00030468AE7206ABDE8F08700000FB400B516
:1005E0008DB010A9099000910B904FF0FF300A9048
:1005F00000200C90064878440690064878446A46E5
:1006000007900F9909A800F04FFF0DB05DF814FB9B
:10061000CF0E0000E70E00002DE9FF5F1D464FF0F2
:10062000FF3B91464FF000085F46D5E90146A969B6
:1006300001987F1C8847296A824688470028F6D19E
:10064000BAF1FF3F0CD0002E24F4C06419DD60061F
:1006500014D5BAF12B0F09D0BAF12D0F0ED103E04A
:10066000584604B0BDE8F09F44F48064A96901983D
:100670007F1C8847761E8246002E02DDBAF1300FBD
:1006800003D0B9F1000F26D032E0A969761E019897
:100690007F1C44F400748847002E824605DDBAF1C1
:1006A000780F06D0BAF1580F03D0B9F1000F10D06F
:1006B0001EE0B9F1000F02D0B9F1100F18D1A969ED
:1006C000761E01987F1C24F400748847824610200F
:1006D00002E0082000E00A20814609E0A96908FB41
:1006E0000908761E01987F1C44F4007488478246EE
:1006F000002E05DD4946504600F045FC0028EDDAA5
:10070000E96901988847A00502D46FF00100A8E7C5
:10071000E00725D1600613D5600502D5C8F10000B9
:1007200000E0404629680A1D2A600968220501D5B3
:10073000087015E0220701D5088011E008600FE07D
:100740002868011D29600068210502D580F8008015
:1007500006E0210702D5A0F8008001E0C0F8008083
:1007600038467EE72DE9FF5F4FF0000899461446B2
:1007700046469169D2E901A7DDF838B0019888476B
:10078000054659EA0B0005D009E0A1690198761CDD
:1007900088470546216A284688470028F5D1681C05
:1007A00003D05FEACA7005D015E04FF0FF3004B007
:1007B000BDE8F09F2068011D2160D0F800800AE0AC
:1007C0005FEACA7001D108F8015BA169761C019843
:1007D0007F1E88470546002F1ADD681C18D0B9F126
:1007E000000F0DD0E81705EBD060421120F01F007C
:1007F00059F822102A1A012090400142E0D107E066
:10080000BBF1000FDCD12846216A88470028D7D0E9
:10081000E16901988847BBF1000F07D1002E05DD83
:100820005FEACA7002D1002188F80010A068B842BF
:1008300003DDBBF1000F03D017B16FF00100B6E785
:100840003046B4E740EA010310B59B070FD1042AF4
:100850000DD310C808C9121F9C42F8D020BA19BA8B
:10086000884201D9012010BD4FF0FF3010BD1AB1F0
:10087000D30703D0521C07E0002010BD10F8013B45
:1008800011F8014B1B1B07D110F8013B11F8014B6C
:100890001B1B01D1921EF1D1184610BD10B5431C8F
:1008A00002E010F8011B71B18107FAD14FF001325B
:1008B00002C88C1A8C4314EAC211F9D0C01A0A0675
:1008C00003D0C01E10BDC01A10BD0A0401D0801E86
:1008D00010BD0902FCD0401E10BD032A40F230803A
:1008E00010F0030C00F0158011F8013BBCF1020F71
:1008F000624498BF11F801CB00F8013B38BF11F8F2
:10090000013BA2F1040298BF00F801CB38BF00F808
:10091000013B11F0030300F0F785083AC0F00880AE
:1009200051F8043B083A51F804CBA0E80810F5E769
:10093000121D5CBF51F8043B40F8043BAFF300804C
:10094000D20724BF11F8013B11F801CB48BF11F8C1
:10095000012B24BF00F8013B00F801CB48BF00F891
:10096000012B70474FF0000200B51346944696469F
:10097000203922BFA0E80C50A0E80C50B1F12001B2
:10098000BFF4F7AF090728BFA0E80C5048BF0CC060
:100990005DF804EB890028BF40F8042B08BF7047BE
:1009A00048BF20F8022B11F0804F18BF00F8012B30
:1009B000704700000000000030B44FF0013C50F8D8
:1009C000042B51F8043BCCFA52F4D51A20D1FCB9CF
:1009D00050F8042B51F8043BCCFA52F4D51A17D135
:1009E000B4B950F8042B51F8043BCCFA52F4D51AA0
:1009F0000ED16CB950F8042B51F8043BCCFA52F4E8
:100A0000D51A05D1002CDAD030BC4FF00000704769
:100A100029BAB1FA81F111F01801D1F12000844016
:100A2000F2D1CA40CB4012F0FF0213F0FF0330BCFA
:100A3000D01A704770477047704710B500F09AFDA4
:100A4000006810BD10B5044600F094FD046010BDB0
:100A50002DE9F0470D4699469246044600F12408D8
:100A60000168880604D5E06921F01001216000E0EA
:100A70000120A84201DD471B00E00027A1697A1987
:100A800002EB0900081AA0612078C00602D42046B3
:100A9000AFF30080002608E0D4E901211AF806002F
:100AA0009047206A401C761C20624E45F4DB20787B
:100AB000C0060AD52046AFF3008006E0D4E9012144
:100AC00030209047206A401C2062381EA7F10107A1
:100AD000F4DC07E0D4E9012118F805009047206A0A
:100AE000401C2062281EA5F10105F3DC2046AFF36F
:100AF00000802078000602D50220BDE8F0870120A2
:100B0000FBE72DE9FF4F0C461E464FF0FF378BB039
:100B1000D2E90001DDF860800A908A46C1F30A55E7
:100B200005B93D46002108464FF00000BAF1000F1C
:100B300000F4400005DA00EB80004FF4400101EAC8
:100B400050004FEA9059B9F1010F00DDB9460A98FB
:100B500050EA4A000ED044F61050A5F2FF35454346
:100B60002F14B8F1000F1ED07542291E1EDDC9F1E9
:100B700000021CE0B8F1010F4FF0000001D030215D
:100B800003E0F24305E02154401CB042FBDB304659
:100B90000022002121540B99C1F80880C1E90020EE
:100BA0000FB0BDE8F08FBD1B6D1CDEE74A4600DAD2
:100BB000694206A800F03EFF06AB93E8070003ABCE
:100BC00083E8070050460A990AF088F88DE8070084
:100BD000A0F500501F3800900398002D0ADD42F266
:100BE0001F014A460844002303A9039068460AF0FF
:100BF00033FB09E0A0F500504A461F38002303A943
:100C0000039068460AF052FB8DE807000004000CD0
:100C100003D04FF0FF30410800E01046B8F1000F5C
:100C200003D00022009215461EE0751E05D400F088
:100C3000B8FC303262556D1EF9D5B3460122084327
:100C400002D000227F1C04E02078302801D100224D
:100C50007F1E002A099784D01DE0112D07DA00F0CD
:100C6000A0FC303262556D1C50EA0102F5D10843F8
:100C700002D00098C8B10EE00021681E05E0235C98
:100C8000625C63542254401E491C8142F7DBAB4630
:100C9000A81B401E0990002004F80B000B98099A2D
:100CA000C0F80880C0E9002B7AE711264FF0000851
:100CB00057E72DE9F04F88460446D21D22F0070180
:100CC00091B0D1E90001CDE90A010AF03BFC0246EE
:100CD0000B98C00F01D02D2007E02068810701D5B7
:100CE0002B2002E0202101EAC000032A099001D054
:100CF000072A05DB03464146204600F0A1FC0BE134
:100D00002078800601D5E06900E00620B8F1650F83
:100D1000814606D0B8F1660F18D0B8F1670F70D1D0
:100D200031E00020B9F1110F009001DB112301E047
:100D300009F101030AAA01A90CA8FFF7E2FEDDE907
:100D40000C70002609F10105834647E001204B465F
:100D500000904FF000470AAA01A90CA8FFF7D1FEA6
:100D6000DDE90DB00C995D46002610B909F10100CE
:100D70000D18B9EB050003D4C0F1FF3609F10105E8
:100D8000A5EB09002BE0B9F1010F01DA4FF00109E1
:100D90000020B9F1110F0090484601DD112300E059
:100DA00003460AAA01A90CA8FFF7ABFEDDE90C7007
:100DB0004D4600268346207800070AD4AB4500DA6A
:100DC0005D4601A8012D04DD411911F8011C3029EF
:100DD00007D04F4502DA17F1040F04DA01208246EA
:100DE0000FE06D1EEEE7002F02DCED1B3E4403E03A
:100DF000781CA84200DD7D1CB81B00F1010A4FF0F1
:100E000000472078000703D4AA4501DB4FF0FF3AE2
:100E10000021B7F1004F0DF143088DF8431024D0A5
:100E200002202B23002F01DA7F422D230A21021EEC
:100E3000A0F1010000DC5FB197FBF1FC97FBF1F240
:100E400001FB1C7C17460CF1300C08F801CDEEE7D5
:100E5000A8F1010003702188090501D5452100E0B2
:100E60006521A0F1010800F8011C09980FA9A1EB68
:100E70000807FF1D00B10120411901EBEA70A169CB
:100E80003844081A401EA0612078C00602D42046CB
:100E9000AFF30080099828B1D4E901219047206A76
:100EA000401C20622078C00622D52046AFF3008087
:100EB0001EE0002E04DBB34502DD01A8805D00E0EA
:100EC0003020D4E901219047206A401C2062761C22
:100ED000AAF101005FEA000A0AD100F047FBC068EE
:100EE0000168405CD4E901219047206A401C2062DF
:100EF000281EA5F10105DCDC07E0D4E9012118F882
:100F0000010B9047206A401C2062381EA7F10107A0
:100F1000F3DC2046AFF30080032011B041E600006F
:100F200001694A1C02610878704700B58FB0CDE9AD
:100F300001310021059105497944CDE9031011469D
:100F40006846FFF7C3FA0FB000BD0000E5FFFFFFE2
:100F50000A6802F8010B0A60704710B5436913B1C3
:100F6000AFF3008001E0FFF74BFA012010BD1278CB
:100F700000F124010A7000224A700122EDE7116895
:100F80004FF0FF32E9E73A2800D2303820F0200253
:100F9000412A01D3A2F13700884201D34FF0FF303C
:100FA000704700002DE9FF4F06468BB00878FF28F8
:100FB00006D0491C2D2805D000244FF0000908E078
:100FC00000200CE00124F8E709EB8903491C00EB41
:100FD00043090878FF28F7D114B1C9F10000814610
:100FE000107800252C46AA4629462D2801D02B280A
:100FF00004D1521C2D2813D0002082468B46107835
:10100000FF280FD04FF0000C0A21521CA5FB0178DD
:1010100004FB018105FB0C11C5194BEB0104EEE744
:101020000120EAE7002108464FF00000BAF1000F66
:1010300002D000EB80004008C0F38157012F01DD92
:101040004FF0FF370E9955EA040009EB01080BD069
:101050004FF0020918F5FA7F16DA4FEACA70002F2E
:10106000706008DD012007E04FEACA70C6E900B0F1
:101070000FB0BDE8F08F0020306000F07BFAC0F8C0
:1010800000901821084616E0B8F5FA7F18DD002F09
:1010900002DAF748784401E0F6487844D0E90010D5
:1010A000C6E9001040EACA70706000F063FAC0F848
:1010B0000090142108460FB0BDE8F04F0BF044B982
:1010C000002108464FF00000B8F10001099002DA53
:1010D000C7F1000200E03A4601DAC8F1000106A8B3
:1010E00000F0A8FC06AB93E8070003AB83E8070019
:1010F00044F23E005BEA04010090584604D144F2F9
:101100001E012C465D460091210C0904014306D1C5
:101110000099240444EA15442D041039009104F088
:101120007F41014306D10099240244EA15642D024F
:101130000839009104F07041014306D1009924015F
:1011400044EA15742D01091F009104F04041014348
:1011500006D10099A40044EA9574AD00891E00915F
:1011600004F00041084304D100986D196441401E09
:1011700000904FF001033A466846B8F1000FCDE900
:10118000014503A902DD0AF0A6F801E00AF079F8AA
:10119000BAF1000F04460D4601D084F0004400214E
:1011A00008464FF00000099940F2FF77484010F0E0
:1011B0000C0F07D124F00040284303D0C4F30A5099
:1011C000B84212D100F0D6F9C0F80090C4F30A502A
:1011D000B8420AD1A8487844D0E90010C6E9001006
:1011E00004F000410843706042E7C6E900543FE75D
:1011F0002DE9FF4F1F464FF0000A4FF0FF384546DC
:1012000091B0D7E90146CDF83CA000F0AFF9C06835
:101210000168405C1090B96912986D1C8847396A62
:10122000814688470028F6D1B9F1FF3F0AD0002E49
:1012300024F4D06411DDB9F12B0F08D0B9F12D0FD2
:101240000BD102E0404615B013E744F48064B9695D
:1012500012986D1C8847761E8146600504A901D549
:101260002D2000E02B20002E01F1010B0DF13008A4
:101270008DF810003FDDB9F1690F08D0B9F1490FC1
:1012800005D0B9F16E0F02D0B9F14E0F1CD13B461B
:1012900001A8009580E85002DDE912126FF002000B
:1012A0000BF0BBF8C11CCED10EE0B96912986D1CD1
:1012B000884781461398761E44F4007405600F98A1
:1012C000401C002E0F9016DDB9F1300FEDD0B9F1B2
:1012D000780F02D0B9F1580F0DD10F9801280AD11B
:1012E0003B46CDE90054DDE91212001F02960BF0D7
:1012F00092F8C11CA7D1109989453ED144F08004D1
:1013000006E01399681CAAF1010A44F4007408600D
:10131000B9696D1C1298761E884730288146F0D036
:101320002BE01099894505D1200603D4761E44F0A0
:10133000800418E048460AF0E5FC08B3761E0DF17B
:1013400023029345A9F1300044F4007406D20BF84F
:10135000010B200607D5AAF1010003E0200602D404
:101360000AF101008246A00502D51399681C0860A5
:10137000B96912986D1C88478146002ED1DC53E074
:10138000002E51DDB9F1650F02D0B9F1450F4BD1F7
:10139000A00549D5B9696D1C1298761E24F44074D5
:1013A0008847002E81460CDD2B2804D0B9F12D0F83
:1013B00007D144F48074B96912986D1C8847761E71
:1013C0008146E00501D52D2100E02B2108F8011B05
:1013D000CDF8008021E0761E0DF13901884544F4F6
:1013E00000740CD2A9F1300010F0FF0088F8000062
:1013F00002D10099884509D908F1010806E0E00505
:1014000001D51E4801E042F20F708246B969129878
:101410006D1C8847814613980560002E04DD484600
:101420000AF070FC0028D6D1F96912988847FF208D
:1014300053468BF8000088F8000000200A900B90BB
:1014400004AA0CA90AA8FFF7ADFDA00502D46FF00D
:101450000100F8E614F0240F12D0E0071CD1386820
:10146000DDE90A12031D3B600068C0E9001213E0C9
:10147000ECB70000DEB70000A2B60000F1D8FFFF15
:101480000AA968460AF080FBE00705D13868009A8F
:10149000011D3960006802602846D4E602681144E4
:1014A0001378016018467047D1600549794451614D
:1014B00004497944116200211161114600F000B91C
:1014C000EDFFFFFF77010000426842B1016811F8AB
:1014D000013B23B1521EC0E900121846704701219A
:1014E000C160881E704742685AB1C368016843B939
:1014F00083688B4205D0491E521CC0E900120020AF
:1015000070474FF0FF30704710B5203AC0F00B80A5
:10151000B1E81850A0E81850B1E81850A0E81850E9
:10152000203ABFF4F5AF5FEA027C24BFB1E818505F
:10153000A0E8185044BF18C918C0BDE810405FEAC1
:10154000827C24BF51F8043B40F8043B08BF70473D
:10155000D20728BF31F8023B48BF11F8012B28BF42
:1015600020F8023B48BF00F8012B70470048704745
:10157000A00000200048704780000020B2F1200346
:101580000AD5C2F1200301FA02F120FA03F341EA7D
:10159000030100FA02F0704700FA03F14FF0000077
:1015A000704730B5B0F10A0271F100034FEA900EB6
:1015B0004EEA817EB0EB0E0061EB91014FEA101E06
:1015C0004EEA017E10EB0E0041EB11114FEA102E96
:1015D0004EEA016E10EB0E0041EB11214FEA104E66
:1015E0004EEA014E10EB0E0041EB1141401841F163
:1015F00000014FEAD00040EA41704FEAD1014FEAC2
:10160000810444EA907410EB800544EB01046D19E9
:1016100044EB0404521BA3414FF0000348BF0A32BD
:1016200000D530BD401C41F1000130BD10B504466D
:1016300000F09CFA0068005D00F0010010BD0000A1
:101640002DE9F0411F46044603260168072A01F4EC
:10165000006004DB08B116A505E016A503E008B19B
:1016600015A500E015A521F010002060A069C01E9E
:10167000A0610FB1401EA0612046AFF300804FB1C2
:10168000D4E9012138469047206A401C2062C01CE2
:10169000206206E0206AFAE7D4E9012115F8010B7F
:1016A0009047761EF8D22046AFF30080BDE8F08167
:1016B0004E414E006E616E00494E4600696E6600F6
:1016C0002DE9F34F4FF0000A0C4656468DB001202D
:1016D0000C9001F10C000B9062690B98012190476E
:1016E000051E2DD0252D2CD0216A8847C0B16269F6
:1016F0000B9801219047216A88470028F7D1626939
:10170000411E0B98904700E0761CA1690D98884710
:10171000216A88470028F7D1E1690D988847DBE7FF
:10172000A1690D988847A842074601D1761CD3E7E6
:10173000E1690D9888477F1C02D1BAF1000F6FD084
:101740006BE162690B9800273D46394690472A288D
:1017500004D162690B98012190470125DFF8D082FE
:1017600062690B9801219047A0F130010A290AD241
:101770004745E5DC07EB870100EB4107303FDFD44D
:1017800045F01005ECE7E90601D46FF000476C283E
:101790000AD04C2814D0682815D06A280DD0742897
:1017A0001CD07A281AD01DE062690B98012190475D
:1017B0006C2802D045F0040514E045F002050DE068
:1017C00045F020050AE062690B98012190476828DE
:1017D00002D045F0080505E045F4006562690B9804
:1017E00001219047C4E9015765283DD019DC5828EC
:1017F0007AD00CDC452837D004DC252826D04128B7
:101800009ED131E046282FD0472899D12CE05B2883
:1018100077D0612828D063287CD0642823D15AE06F
:10182000F6E06F2848D008DC66281DD067281BD05A
:10183000692821D06E2816D127E0702845D073285A
:1018400068D0752847D078280DD14DE0A1690D9852
:101850008847252805463FF469AFE1690D98884718
:101860006D1C3FF46AAFD8E00D9923466A466FF0CD
:1018700001000AF0CEFDC5E045F0400023464FF0E0
:1018800000026060A80736D43EE0E8077FF447AF67
:101890002068011D21600068290501D506701BE73D
:1018A000290701D5068017E7A90703D5F117C0E975
:1018B000006111E706600FE745F0400023464FF056
:1018C00008026060A80716D41EE040F60E0125EA63
:1018D0000100606016E045F0400023464FF00A0228
:1018E0006060A80707D40FE045F040006060A807DB
:1018F00008D5234610220D996FF00100AFF3008048
:1019000080E007E0102223460D996FF00100FEF7FA
:1019100083FE77E04FF0000963284F46C8464B46E8
:10192000CB4602D05B2806D038E0E80601D401207F
:10193000A060012732E06269D4F80CB00B98012155
:1019400090475E2807D14FF0010949466269D4F8F3
:101950000CB00B989047216939B900210A4603ABB6
:1019600043F82120491C0829FADBD8B3216949B37F
:1019700008F1010862690B98012190475D28F4D1B4
:10198000B9F1000F09D0002003A951F82020D2435B
:1019900041F82020401C0828F7DB03AB2069002811
:1019A00020794FEA40701ED05B462246CDF8008079
:1019B000CDE901970D9900286FF0010020DAAFF30F
:1019C00000801FE0C11703AA00EBD1614B1121F089
:1019D0001F0102EB8302411A136801208840034370
:1019E0001360C7E719E00D99224600286FF0010047
:1019F000009702DAAFF3008004E0FEF7B3FE01E0E7
:101A0000AFF3008000280ADA401C06D10C9820B100
:101A10004FF0FF300FB0BDE8F08F5046FAE7E9070E
:101A200001D10AF1010A064400200C9054E600009E
:101A3000CCCCCC0C2DE9F047814616468AB035480F
:101A400078440DC88DE80D0032487844801C03AC02
:101A50000DC884E80D0041F69B300844372190FB07
:101A6000F1F290FBF1F5A5F1800501FB12041B3C9E
:101A700002D56442012000E00020DFF898A08046F3
:101A80000027FA44AAF1BE0A0EE0E0070AD0324667
:101A9000684607EB470101230AEB810109F006FCC8
:101AA0008DE8070064107F1C002CEED1194F7F4495
:101AB000AE3F19E0E80715D007EB04100DF1180A46
:101AC00090E80E008AE80E00C068F04201D1981933
:101AD00008903246012306A903A809F0E7FB03ABEF
:101AE00083E807006D10641C002DE3D14FF0010363
:101AF00032466946B8F1000F03A802D009F0ACFBEA
:101B000001E009F0D3FBC9E90001C9F808200AB0D7
:101B1000BDE8F087A8AA00000048704780000020B8
:101B20007546FFF7F9FFAE4605006946534620F0BB
:101B30000700854618B020B5FEF7C4FBBDE820407D
:101B40004FF000064FF000074FF000084FF0000B79
:101B5000AC46ACE8C009ACE8C009ACE8C009ACE8E8
:101B6000C00921F007018D467047000010B5FFF74E
:101B7000FDFC001D10BD00BF59A200002DE9FF4F64
:101B80001F464FF03C0987B04FF00042DDE91410CA
:101B900001F10108DDF858A002EA4050039000204E
:101BA00005908346054604460490B969461E089888
:101BB0008847AAF1010A0290BAF1000F3BDD0298B2
:101BC0002E2815D01021FFF7DEF900282EDB4FF06C
:101BD000010B0599014317D0B9F1000F0BDB4A4601
:101BE000C117FFF7CBFC05430C43A9F1040905E03D
:101BF000012004900BE008B145F00105012005909B
:101C0000049820B9361D02E0049800B1361FB96966
:101C1000089808F101088847BBF1000FAAF1010AF2
:101C20000290C9D00999C1F80080C5E702987028D0
:101C300008D0502806D0F96908988847BBF1000FF2
:101C400014D04FE0002002900120BBF1000F04905F
:101C500009D0B969089808F101088847AAF1010973
:101C6000B9F1000F07DCF969089888476FF00100A7
:101C70000BB0BDE8F08F2B2804D02D280CD14FF0ED
:101C8000FF300490B969089808F101088847A9F164
:101C90000109B9F1000FE6DD411CE4D00A21FFF78C
:101CA00072F90028DFDB029908F1010801EB8101DC
:101CB00000EB41000290B969089888470A21FFF7B4
:101CC00062F9099AA9F10109B9F1000FC2F800807F
:101CD00001DD0028E7DAF969089888470499029835
:101CE00000FB016655EA040004D004F040410900FD
:101CF00002D006E0039898E0A40044EA9574AD0091
:101D0000B61E04F00041080002D16D196441761E30
:101D1000159810F0240F03D04FF00B095C4803E036
:101D20004FF028096FF07D008246564507DAAAEB8E
:101D300006018944B9F1410F01DD4FF0410901204D
:101D40000021A9F10102FFF719FC024628400B46C9
:101D50002140084301D0012100E00021501E0291E2
:101D600043F1FF3128402140084301D0012000E029
:101D700000200299834651EA0B014FD0002108460A
:101D80004FF00000039900F4400039B100EB8000EF
:101D90004FF4400100EBD07001EA6000801501288B
:101DA00002DD4FF0FF3000E013D0401C36D0029827
:101DB00060B3BBF1000F0CD14A4601200021FFF7B0
:101DC000DDFB28402140084301D0012000E0002035
:101DD000E0B101204A460021FFF7D0FB034640193D
:101DE0000A4661412D1A8C4111D3B9F1400F09DD2A
:101DF000159810F0240F02D0AAF1340603E0AAF1DE
:101E0000170600E0761C00254FF0004406E05B1E3C
:101E100042F1FF3220EA030521EA0204CAF101007F
:101E2000B04206DA1B490398084301900020009055
:101E30000EE0039AC4F3D321E80A0A43164940EAA4
:101E400044500A433146CDE90002684609F050FF8C
:101E5000159810F0240F0BD01598C00715D13868CD
:101E6000DDE90012031D3B600068C0E900120CE0D0
:101E700002A8694609F088FE1598C00705D13868A0
:101E8000029A011D3960006802604046F0E60000D9
:101E900002FCFFFF0000F07F0000F03F2DE9FF4F44
:101EA00092461D4685B04FF00041DDE9124BDDE959
:101EB00014727F1E01EA4B50414940F0FF4940EA4D
:101EC0000108002122F020004928049102D04E2868
:101ED00028D04CE03BA0012607C88DE80700A9697F
:101EE0000698641C88477F1E014606D41DF806002C
:101EF00018B121F0200181420BD0E969069888478A
:101F0000032E34D0082E32D06FF0010009B0BDE8A6
:101F1000F08F761C032E01D0082EE0D1601CCAF889
:101F20000000DCE7A9690698641C88477F1E2AD454
:101F300020F02000412826D1A9690698641C884712
:101F40007F1E20D420F020004E281CD1A9690698BD
:101F5000641C88477F1E48F4002849F48009CAF8A9
:101F6000004001D4282806D0E969069888475FEA2E
:101F7000CB7012D022E0A9690698641C88477F1EA6
:101F800001D4002803DAE96906988847BCE72928C4
:101F9000F1D1641CCAF80040E9E71BF0240F07D018
:101FA00028680499031D2B600068C0E9001805E04B
:101FB0002868021D2A600068C0F800902046A5E746
:101FC0000000F07F494E46494E4954590000000038
:101FD00010B50446AFF300802046BDE81040FEF780
:101FE0005DB9000001491820ABBEFEE726000200E3
:101FF0007047000080B540F29420C2F2000002F069
:10200000F5FB80BDB0B582B000250195044600689F
:1020100005F0BCFC002859D120683F228168C8F235
:102020000002114209D0E06D012540F01000E0658A
:10203000206E40F00100206648E005F043FC05F00A
:1020400055FC000226D403F035FD21680A68D2074A
:1020500039D1054604E000BF21680868C00734D1C3
:10206000084605F093FC10B9206805F02BFC03F03E
:1020700021FD401B0328EFD320680068C007EBD187
:10208000E06D012540F01000E065206E40F0010099
:1020900020661BE040F20000C2F20000006842F639
:1020A00063518009C0F23E51A0FB0101880900EB99
:1020B00040000C2101EB8000019001980028C2D063
:1020C00001980138F8E7002500E00025284602B015
:1020D000B0BD000010B582B004460DF106033620F5
:1020E0000C21022200F01CF8BDF806009FED081A32
:1020F000C0BA00EE100AB8EEC00A9FED062A20EE24
:10210000010A20EE020A84ED000A02B010BD00BFF1
:10211000DB0FC9400000803980B506F0D1FF80BDDB
:10212000F0B581B01D4614460E46074607F0C0F8CC
:102130007F00F8B207F076F807F024F928B10124FF
:1021400007F0E6F8E0B201B0F0BD304607F06AF8FB
:1021500007F018F907F0ACF847F00100C0B207F03B
:1021600061F807F00FF905E0002007F007F805F81F
:10217000010B013CE0B20128F6D00028E0D001209C
:10218000F3E70000FEE70000C11C00203A2200BF78
:1021900011F8013F013A1844FAD1704780B540F276
:1021A0000030C2F2000002F0EFFD80BD80B540F2C9
:1021B0006030C2F2000002F0E7FD80BD80B501682A
:1021C0006FF007024CF6CD4352FA81F2CCF6CC43C5
:1021D000A2FB032C40F20842C4F20202D0F844E011
:1021E00002F58363914238BF02F57E732EF003013E
:1021F000194402F58F6ECCF3041301229A40C0E912
:10220000121E026580BD0000017940F600120139FE
:10221000C4F2020202EB810302F1400C01F01F0143
:10222000012202FA01F1C0E9153CC16570470000C6
:1022300070B5D0E913C4D0F854E0CCF80440BEF136
:10224000000F1CBFD0E916C4CCF80440D0E9106ED2
:102250000468D0F808C00EF01F00012505FA00F050
:10226000706008466360BCF1100F04BF10460A4658
:10227000A060E26070BD00007047000010B582B041
:1022800004460078012804D030B901A805F038FCD4
:1022900002E001A8FFF71EFF207AE1689DED010A28
:1022A000D4ED010A484384ED040A08F0B9F994ED2D
:1022B000041A94ED052A9FED243A31EE422AB4EE39
:1022C000432AF1EE10FA84ED062A84ED070A02DDB6
:1022D0009FED1C0A08E09FED1E0AB4EE402AF1EEC5
:1022E00010FA05DA9FED190A32EE000A84ED060AAB
:1022F00094ED060A9FED172A40F2E00094ED083AAB
:1023000084ED051A9FED141A9FED144AC2F20000E5
:1023100020EE022A017822EE011A23EE042A31EE81
:10232000021A192984ED081A07D394ED091A182105
:1023300030EE010A017084ED090A01780131017063
:1023400002B010BDDB0FC9C0DB0F4940DB0FC94035
:10235000DB0F49C000401C46CDCC4C3ECDCC4C3FA1
:10236000F0B581B02DED028BB0EE408A1D461446CB
:102370000E46012B074603D025B905F0E7FB01E027
:10238000FFF7CAFE3D703E72FC6087ED018ABDEC2E
:10239000028B01B0F0BD0000EFF3108072B600BFF9
:1023A000FEE7000080B540F2C030C2F2000002F04B
:1023B0009BFF80BD80B54AF2FC31C4F200010A1DCA
:1023C00002640268D0E90DECD2F8803023F4F813EF
:1023D00043EA0E43C2F8803001F174034364D2F83B
:1023E000803023F0706343EA0C63C2F8803001F15F
:1023F000B402826401F5C672C26401F51972026505
:1024000001F51F724265002001F5547241F8040F76
:102410009142FBD380BD0000B0B588B040F2C0301F
:10242000C2F200000121002202F0CAFD08B100BF83
:10243000FEE740F2C030C2F2000002210022022476
:10244000002502F0BDFD00B1FEE70120CDE9050544
:1024500040F2C030C2F2000002A9CDE90255049456
:10246000079502F057FE00B1FEE740F2C0300025AC
:10247000C2F20000022102220023009502F07AFE3F
:1024800008B100BFFEE740F2C030C2F2000003F026
:102490001BF908B0B0BD0000F0B5D1E901ECBEF108
:1024A000000FD1F810E006D00C684EEA0C05254369
:1024B00045F0804C04E00D684CEA0E0444EA854C7B
:1024C000D1E90756D1E905E445EA0665CF682C4312
:1024D00044EA0E0646EA0747466D03EBC30306EBE4
:1024E000C30046F833C04760CB68002B08BFF0BD7F
:1024F0004CF2845C083001320023C0F6000C00BFAF
:10250000D71857F8017CC750CF6804331CF8077000
:10251000BB42F5D3F0BD0000B0B50C4640F2E1017E
:1025200005464FF0FF30C2F2000100BF2A18927832
:102530000B18013003285A70F8D140F2E100C2F2C2
:10254000000006F0FDFF84ED000A28782071B0BD80
:1025500080B58AB0C178024608294FF000001BD828
:10256000049132F8041BCDE90500CDE9011012F801
:10257000021CCDE907000990481EB0FA80F040091E
:102580004007039040F2C030C2F2000001A902F0FF
:102590009BFDB0FA80F040090AB080BD40F22C00EB
:1025A000C2F20000027F42F20001032AC4F20201DB
:1025B00003D0022A15D0012A1FD10B6802F0FE02B7
:1025C00023F400730B600B68022A43F400630B6072
:1025D0000B6823F400630B600B6843F400730B601B
:1025E0000BD10A6842F480520A600A6822F48052D1
:1025F0000A600A6842F480620A600021017770472D
:10260000C00742F21400C4F2020003D0016841F096
:1026100004010160016841F48031016070470000ED
:1026200042F21401C4F202010A68C0B222F4FC7240
:1026300042EAC0000860086840F0020008600868CC
:1026400040F480300860704742F2140CC4F2020C6F
:10265000DCF8001041F00101CCF800100260BFF37B
:102660006F8F43607047000080B542F21402C4F2DD
:1026700002021368043843F480231360EFF3108CD4
:10268000EFF3108372B60439402300BF51F804EF12
:10269000013B1A0640F804EFF8D18CF3108880BD96
:1026A00070B542F210060446C4F2020603F002FAC4
:1026B000054600BF3068C00306D503F0FBF9401B98
:1026C000A042F7D9032070BD30684CF2FA310840BF
:1026D00009D040F22C01C2F200014A6802434A606C
:1026E0003060012070BD3068C00704BF002070BD9D
:1026F00001203060002070BD2DE9F04F8FB040F216
:10270000700040F20C6640F2882140F2080240F26C
:10271000040740F24C03C2F20000C2F20006C2F20B
:102720000001C2F20002C2F20007C2F20003CDE9CA
:102730000837CDE90A21CDE90C6040F2280140F2CA
:102740001C0040F2200240F2140340F2680840F2FC
:10275000580A40F2540540F2500640F25C0740F23D
:102760002404C2F20001C2F20000C2F20002C2F26E
:102770000003C2F2000840F2600B40F26409C2F2AA
:10278000000AC2F20005C2F20006C2F20007C2F25D
:102790000004C2F2000BC2F20009CDE90283CDE9C8
:1027A000042006915046294632463B46CDE9009B1F
:1027B000079400F09DF800F083F810B10FB0BDE869
:1027C000F08F0020C4F2C83038604CF6CD40C3F61C
:1027D000CC503060C9F800000020C4F22010C8F8C6
:1027E0000000002040F21401C4F2C820C2F200012F
:1027F000086040F220014FF07C50C2F200010860F6
:1028000040F22801C2F20001CBF80000086000206D
:1028100040F21C01C4F2A010C2F20001086040F2B4
:102820002401C2F20001086040F20C61CAF8000005
:1028300028600020C2F20001087040F20400C2F2D9
:102840000000016840F20800C2F2000090ED006A4A
:1028500040F24C0040F288220023C2F20000C2F293
:10286000000240F270079FED141AC4F24013007882
:102870001278C2F20007DFED0F1ADFED103AF6EE24
:10288000002AB3EE040A3B60B2EE043AF2EE086AA4
:10289000F0EE400AB0EE412AB0EE624AF0EE404A55
:1028A000B0EE625AF0EE405A002300F099F80FB0F3
:1028B000BDE8F08F0000C843CDCCCC3D0000C8423D
:1028C00010B54FF60004C0F60104206841F234212F
:1028D000CAF6CD3188421CBF002010BD2046FFF74C
:1028E00053FCD4F84310081AB0FA80F0400910BD28
:1028F0002DE9F04F81B0DDE90CBADDE90A981C46FC
:1029000015460E460746FFF7DBFF002840D04FF67E
:102910000400C0F6010001680E9A39604168149BFA
:10292000316081682960C16821600169C9F80010BF
:102930004169C8F800108169CBF80010C169CAF874
:102940000010016A1160416A0F9A1160816A109A41
:102950001160C16A119A116090F83010129A1170CA
:10296000D0F83100139908604FF63900C0F6010025
:1029700001680279196015990A70407916990870F2
:102980004FF63F00C0F60100006800EE100A21E09B
:102990000E9900203860306028602060C9F800007F
:1029A000C8F80000CBF80000CAF8000008600F99D2
:1029B000129A08601099B2EE080A0860119908602E
:1029C00001211170139A116014990860159908700B
:1029D00016990870179880ED000A01B0BDE8F08FD5
:1029E0002DE9F04F81B02DED108B98B0834641F268
:1029F0003420CAF6CD30019002A880EC0C0A16EE05
:102A0000100ACDF83D0016EE900A01AD0024CDF875
:102A100043002846B0EE668A98469146B0EE469A44
:102A20008A46B0EE65AAB0EE45BAB0EE64CAB0EE22
:102A300044DAB0EE63EAB0EE43FAF0EE628AF0EE0A
:102A4000429AF0EE61AAF0EE41BAF0EE60CAF0EE02
:102A500040DA13948DF838B0CDF839108DF8412054
:102A60008DF84230FFF790FBCDF8470002F02EFFC3
:102A700001207F211590CDE9161014A813A91494F4
:102A800002F044FE18B1044602F0B6FE85E0A5F15E
:102A900008064FF600050027C0F6010556F8082F76
:102AA00000207368294602F0B3FE044628B9082FB7
:102AB00007F1010705F10805F0D302F09DFE002C97
:102AC0006BD140F25800C2F20000C0ED00DA40F2D3
:102AD0005400C2F20000C0ED00CA40F25000C2F241
:102AE0000000C0ED00BA40F25C00C2F20000C0ED90
:102AF00000AA40F26400C2F20000C0ED009A40F269
:102B00006000C2F20000C0ED008A40F26800C2F22C
:102B1000000080ED00FA40F21400C2F2000080EDE7
:102B200000EA40F22000C2F2000080ED00DA40F23C
:102B30001C00C2F2000080ED00CA40F22800C2F280
:102B4000000080ED00BA40F22400C2F2000080EDE7
:102B500000AA40F24C00C2F2000080F800B040F23F
:102B60000800C2F2000080ED009A40F20400C2F2B8
:102B70000000C0F800A040F28820C2F2000080F8F7
:102B8000009040F20C60C2F2000080F8008040F239
:102B90007000C2F2000080ED008A204618B0BDEC43
:102BA000108B01B0BDE8F08F704700002DE9F043B5
:102BB00081B004460020009094F85800012802D10A
:102BC0004FF0020910E260690D46012184F85810A7
:102BD00010B1296A012919D16868092840D12868EB
:102BE000A96A4FF4785202EA504021B1EA6A01F032
:102BF0007C0111430843216844F20003CA6CC0F20F
:102C000010431A400243CA64606629E0A06E00289F
:102C10004FF000000AD1AA6A6066A1F10100A16626
:102C200022B102F07C01EA6A08431043D5E9002191
:102C300001F01F01C2F3846202FA01F10843D4E9F2
:102C40001921013940EA0200C4E9190108D12168BB
:102C500044F20003CA6CC0F210431A401043C86427
:102C6000206804F079FE98B92068C16895F825209D
:102C700095F8263021F44011002A4FEA435201D042
:102C8000114304E095F82430114341EA0351C16037
:102C9000206804F08BFE21680646084604F05CFEBE
:102CA000304302D04FF00009EEE0A86A60B1E86A54
:102CB00050B195F8250001280FD1E06D4FF00109C2
:102CC00040F02000E0650FE0206895F82520C168FD
:102CD000012A04D141F0007103E02068C16821F0AD
:102CE00000714FF00009C160206895F8302001693B
:102CF000012A08D1D5E90D2321F4FF7111431943AD
:102D000041F0020101E021F002010161AB68296894
:102D100003F10040B0FA80F047092068B3F10042A7
:102D200018BF1A46FF0704F04DFE2068394604F02C
:102D3000AFFE206829696B69C268042940F08E8063
:102D40004FF6FF780021C0F2070804F0F7FD216874
:102D500007460846002104F0F1FD7A0390FAA0F13D
:102D60002A68B1FA81F108BFC0F3846192FAA2F037
:102D7000B0FA80F0530308BFC2F38460814203D1EC
:102D80002068002104F07CFE2068012104F0D6FDBB
:102D9000216807460846012104F0D0FD90FAA0F111
:102DA0002A68B1FA81F117EA080F08BFC0F38461FD
:102DB00092FAA2F0B0FA80F012EA080F08BFC2F34C
:102DC0008460814203D12068012104F059FE20680B
:102DD000022104F0B3FD216807460846022104F0F1
:102DE000ADFD90FAA0F12A68B1FA81F117EA080F57
:102DF00008BFC0F3846192FAA2F0B0FA80F012EA40
:102E0000080F08BFC2F38460814203D12068022109
:102E100004F036FE2068032104F090FD2168074687
:102E20000846032104F08AFD90FAA0F12A68B1FA5D
:102E300081F117EA080F08BFC0F3846192FAA2F08B
:102E4000B0FA80F012EA080F08BFC2F38460814232
:102E50001AD12068032104F013FE15E0062707EAC3
:102E600092072A68BB4004F0E9FD20682969AA6935
:102E700004F0FEFD2A7F2068013AB2FA82F2296945
:102E80005209520604F0ECFD206804F083FD00288E
:102E90004DD120682968EA6804F0A6FDE8680021A1
:102EA000C4F27F01884242D1D5F800E04FF0806142
:102EB0009EFAAEF27346B2FA82F76FF3DF433A46F8
:102EC0002068002B08BF4FEA9E62561C01EB82610E
:102ED00006F01E0C01F0F84206F01F010126BCF1BD
:102EE000090F06FA01F60DD842EA0601002B08BFC9
:102EF0004FEA9E677A1C02F01F0202EB420241EA8F
:102F0000025111E0002B08BF4FEA9E67791C01F0C7
:102F10001F01002301EB4101CFF6206303EB0151B8
:102F20003243114341F00071AA6804F04BFD6888F8
:102F300048F20801084254D004F0E0FC296800225D
:102F4000CCF22132914204D01022C9F2C002914247
:102F500022D1020220D42168B1F1A04F41D140F426
:102F6000000004F061FD40F20000C2F200000068C1
:102F700042F663518009C0F23E51A0FB010188096D
:102F800000EB4000182101EB800000BF009000988A
:102F900038B300980138F9E70022CCF2527291421E
:102FA00008BF10F0807211D00022CCF6843291421A
:102FB00008BF10F4800114D1216840F20012C5F25C
:102FC000000291420DD040F4800008E0216840F2F8
:102FD0000012C5F20002914203D040F0807004F06C
:102FE00023FD002084F85800484601B0BDE8F08376
:102FF0002DE9F04F81B02DED068B04464FF0904047
:103000001021002202F050FD206840F6581940F2CD
:103010004A78B0F1A04FC2F20009C2F2000840F0B5
:103020003D8140F24970C2F200000178002900F0B1
:10303000DD8040F29420C2F20000006840F2EC0112
:1030400090ED200AC2F2000191ED001AB8EE400A9C
:1030500030EE410A9FEDE61A9FEDE62A20EE010AC6
:1030600020EE020AB3EE043A40F2E45520EE030AE1
:10307000C2F2000585ED000A40F2F40190ED210A4C
:10308000C2F2000191ED004AB8EE400A30EE440A67
:1030900020EE010A20EE020A20EE030A85ED010A65
:1030A00040F2FC0190ED220AC2F2000191ED004ACB
:1030B000B8EE400A30EE440A20EE010A20EE020A81
:1030C00020EE030A85ED020A90ED230A9FEDCA1A4D
:1030D000B8EE400A80EE010AB2EE061A40F2700025
:1030E000C2F2000040F62E5647F26F67C0F20A06A1
:1030F000C7F2652720EE020A20EE010AB6EE001A9A
:1031000030EE010A90ED001AB2EE042A31EE021AF6
:10311000B4EE410AF1EE10FA89ED000A06DC9FEDEB
:10312000B71AB4EE410AF1EE10FA23DD40F2C8748A
:1031300046F27410C2F20004C6F2675047F22061F2
:10314000C6F66F41C4E902062046C4E90071FDF7E6
:10315000A5FB82B240F25050C2F20000214604F0BA
:1031600059FB022088F8000040F26C00C2F2000017
:103170000421017095ED001A9FEDA10A21EE011ABC
:10318000B4EE401AF1EE10FA11DC95ED011A21EEC1
:10319000011AB4EE401AF1EE10FA08DC95ED021AAD
:1031A00021EE011AB4EE401AF1EE10FA76DD40F28B
:1031B000C87446F27250C2F20004C7F26E4046F282
:1031C0002031C7F27521C4E902062046C4E9007126
:1031D000FDF764FB82B240F25050C2F2000021467B
:1031E00004F018FB022088F8000057E040F2E801E4
:1031F000C2F200010A68561C0E604FD240F29422BF
:10320000C2F20002176840F2F002C2F20002D7F8E0
:1032100080301568B6F57A7F2B44136040F2F803CE
:10322000C2F20003D7F884501C6825441D60D7F80B
:10323000885040F20017C2F200073C6825443D6008
:103240002CD192ED000A9FED6F1AB8EE400A93ED73
:10325000002A80EE010AB8EE422A97ED003A82EE8B
:10326000012AB8EE433A83EE011A40F2EC06C2F2AC
:10327000000686ED000A40F2F406C2F2000686ED72
:10328000002A40F2FC06C2F2000686ED001A012672
:1032900006700020106018603860086040F26024FA
:1032A000C2F200042046FEF7E9FF98F80000C11EB4
:1032B000022980F0888040F20C70616A40F2E0657B
:1032C00040F24876C2F20000C2F20005C2F20006E7
:1032D0000068E96031782861481E9FED4B8AB0FA9A
:1032E00080F041092846B0EE480A04F02FFF3078FC
:1032F00040F24471C2F20001012808BF05F120012B
:103300000868216A40F21875C2F20005C5E9031089
:1033100028460121B0EE480A04F018FF40F2F856A2
:1033200094ED070A40F2E450C2F20006C2F2000037
:10333000314606F0A9F8306840F21067C2F2000783
:10334000F8603846012104F0A9FB786940F2006773
:10335000C2F200073860706840F26C66C2F2000684
:10336000F0603046012104F099FB706940F2286654
:1033700078603868C2F200060021C6E903013046D1
:103380000121B0EE480A04F0E1FE306A40F25876BE
:10339000C2F200063060286A796840F28465C2F2A1
:1033A0000005C5E9031028460121B0EE480A04F0E3
:1033B000CDFE286A94ED070A40F24C717060C2F2AB
:1033C00000013046FFE0052840F0CA8040F24B7B08
:1033D000C2F2000B9BF80000062800F2F680DFE83E
:1033E00010F02500440168018E01A5018202BE0390
:1033F000000080393333534000F07F450000104215
:103400000000C84300007A4417B7D138ACC527374D
:10341000000000009A99193F9A9999999999E93F62
:10342000333333333333E33F920A86BF40F27C1B9E
:10343000C2F2000B9BED000A40F258701FED0D1A0E
:10344000C2F2000080ED000A002130EE010A416066
:103450008BED000A40F24C711FED130AC2F200011D
:1034600006F070FE40F2F05440F2E450C2F2000464
:10347000C2F20000214605F0DFFF94ED000A94ED52
:10348000011A20EE000A21EE011A30EE011AB1EE07
:10349000C10AB4EE400AF1EE10FA81F1528040F216
:1034A000C864C2F200042046012184ED030A04F03E
:1034B000F5FA40F21800C2F2000094ED050A90ED12
:1034C000001A40F20860B4EE410AC2F20000F1EEC8
:1034D00010FA80ED000A10DC40F27000C2F2000029
:1034E00090ED000A1FED351A9BED002A20EE010A2F
:1034F000B4EE402AF1EE10FA67DD4CF60000C0F69B
:10350000000090E88E000669D0E9055C40F2C874BE
:10351000007FC2F20004207720464FF0010A84E8C1
:103520008E00C4E90465C4F818C0FDF7B7F982B28B
:1035300040F25050C2F20000214604F06BF9DBF873
:10354000000040F26071C2F2000108600020CBF878
:10355000000040F24B70C2F2000080F800A034E09E
:103560001FED578A40F22860C2F200000021B0EE41
:10357000480A002504F0EAFD40F28460C2F200002F
:103580000021B0EE480A04F0E1FD40F21870C2F2EA
:1035900000000021B0EE480A04F0D8FD40F2E060DF
:1035A000C2F200000021B0EE480A04F0CFFD40F264
:1035B000587094ED070A40F24C71C2F20000C2F25A
:1035C00000010560456006F0BDFD40F2542499ED10
:1035D000000A40F24C70C2F2000442F62C45C2F2DE
:1035E00000002146C4F2010506F0FCFD98F8000039
:1035F000C11E032924D295ED000A94ED001AB8EEFD
:10360000400A21EE000ABCEEC00A94ED012A94EDB6
:10361000023A85ED020A95ED000AB8EE400A22EE64
:10362000000ABCEEC00A85ED030A95ED000AB8EE6B
:10363000400A23EE000ABCEEC00A10EE100A08E0B1
:103640000138022806D228680020A8602968E860AE
:10365000296828614FF090401021012202F024FADD
:10366000BDEC068B01B0BDE8F08F40F26070C2F295
:103670000000006808F0B4FD1FED990B53EC102B0F
:1036800008F07AFC08F0BAFB40F24416C2F20006D9
:10369000316842F21072914240F25871C2F2000158
:1036A00008604FF00000486080F2E4821FEDA80A35
:1036B000ECE240F26070C2F20000006808F090FD99
:1036C0001FEDA90B53EC102B08F056FC08F096FBED
:1036D00040F2587140F2281AC2F20001C2F2000A08
:1036E0000860DAF8000042F2117290424FF00002D6
:1036F0004A6080F226831FEDB40A00F0F3BC40F26A
:103700004815C2F20005296842F21070814240F269
:103710005870C2F20000C0F2D58544F62062914292
:1037200080F2D284B0EE000A00F0BEBD40F21C155B
:10373000C2F20005286846F26761C6F2666150FB76
:1037400001F18A1002EBD17101EB810140F21816F0
:1037500040F2607A4CF2445BA0EB4100C2F20006FA
:10376000C2F2000AC0F6000B30609AED000A0BEBC3
:103770008000B6EE009A90ED001A20EE090A40F2A1
:10378000587020EE011AC2F2000000211FEDE08AFD
:1037900030EE010A416040F24C7180ED000AC2F245
:1037A0000001B0EE480A06F0CDFC40F2F85440F2B9
:1037B000E450C2F20004C2F200002146B0EE480A12
:1037C00005F062FE2868B0F57A7F4DDB30684CF278
:1037D0001C51C0F6000140F25C1701EB8001C2F2FF
:1037E000000794ED001A91ED000A97ED002A21EEF2
:1037F000000A40F210160BEB800132EE000AC2F212
:10380000000691ED002A96ED003A21EE021A33EE01
:10381000011A092887ED000A86ED001A24D120EE4E
:10382000000A21EE011A30EE011AB1EEC10AB4EE1F
:10383000400AF1EE10FA80F19E86B1EE041A80EE95
:10384000010A40F25464C2F200042046012184EDD2
:10385000030A04F023F9606940F20C11C2F200017E
:10386000086000203860306028684EF66021013022
:1038700040F24B768842C2F2000628607FF4A5AE83
:1038800040F20C10C2F200009AED000A90ED001A0E
:103890009FEDEC2A20EE090A21EE021A80EE010AC1
:1038A00040F28410C2F2000080ED000A10EE100A0F
:1038B00008F096FC40F2C874C2F2000402460B46BF
:1038C0000FF6E4412046FCF787FD2046FCF7E6FFB3
:1038D00082B240F25050C2F20000214603F09AFF3B
:1038E000052030702EE140F22415C2F20005286850
:1038F00046F26761C6F2666150FB01F18A1002EB85
:10390000D17101EB810140F2201640F2607A4CF255
:103910004457A0EB4100C2F20006C2F2000AC0F612
:10392000000730609AED000A07EB8000B6EE009ABF
:1039300090ED001A40F258709FEDC38A20EE090AFC
:10394000C2F2000040F24C7120EE011A80ED000A34
:10395000C2F20001B0EE480A80ED011A06F0F2FB57
:1039600040F2F85440F2E450C2F20004C2F2000007
:103970002146B0EE480A05F087FD2868B0F57A7F49
:103980004EDB30684CF21C51C0F6000140F25C1B6B
:1039900001EB8001C2F2000B94ED011A91ED000AD7
:1039A0009BED002A21EE000A40F2101607EB800181
:1039B00032EE000AC2F2000691ED002A96ED003ABE
:1039C00021EE021A33EE011A09288BED000A86ED6A
:1039D000001A25D120EE000A21EE011A30EE011A5C
:1039E000B1EEC10AB4EE400AF1EE10FA80F1C985D9
:1039F000B1EE041A80EE010A40F2B064C2F2000493
:103A00002046012184ED030A04F048F8606940F281
:103A10001411C2F2000108600020CBF800003060F1
:103A200028684EF66021013040F24B778842C2F29E
:103A3000000728607FF4C9AD40F21410C2F2000004
:103A40009AED000A90ED001A9FED7E2A20EE090AF9
:103A500021EE021A80EE010A40F28816C2F2000638
:103A600010EE100A86ED000A08F0BAFB40F2C874A6
:103A7000C2F2000402460B460FF618312046FCF74E
:103A8000ABFC2046FCF70AFF82B240F25050C2F273
:103A90000000214603F0BEFE40F27004C2F20004B2
:103AA00094ED002A9FED699A40F28410C2EE091A43
:103AB000C2F2000090ED000A40F210709FED641A0F
:103AC000C2F2000090ED002A40F2200020EE010A30
:103AD000C2F2000096ED003A80ED000A40F21C00B0
:103AE00062EE010A40F22806C2F200009FED568AFB
:103AF00023EE011AC2F20006C0ED000ABA4640F2F7
:103B0000240740F2286086ED001AC2F20007C2F2D4
:103B10000000B0EE481AC7ED000A04F067FB94ED10
:103B2000000AD7ED000AC0EE091A96ED000A40F22D
:103B30008460C2F20000B0EE481A04F057FB062081
:103B40008AF8000040F25C110020C2F20001086017
:103B500040F21011C2F200012860086035E540F221
:103B60006C1AC2F2000ADAF8000048F2A0654DF2C1
:103B7000C04BC0F2010540F26817C0F2010BA84229
:103B8000C2F2000780F2E58040F2180040F27016A1
:103B9000C2F20000C2F2000690ED000A96ED002A83
:103BA000B6EE001A9FED2B9A20EE01AAB8EEC20ADB
:103BB0009FED298A20EE090A20EE080A07F0CAFEC6
:103BC000DAF8000044F621612AEE000A884287ED07
:103BD000000A32DB96ED000AB8EEC00A20EE090AB0
:103BE00020EE088A94ED089AB0EE480A07F054FDDA
:103BF00040F27410C2F2000090ED001A29EE000AA3
:103C000031EE000A94ED089A80ED000AB0EE480A01
:103C100007F0A0FE40F26010C2F2000040F2041172
:103C200090ED001AC2F2000129EE000A0A6831EE96
:103C3000000A80ED000A501C086030680130411B0A
:103C4000E6E000BF7C59C44500000000D7B3DD3F6B
:103C500000004843DB0FC94017B7D1386F12033A51
:103C60000AD7A3BB0AD7A33BD253FB41E7E91D42C6
:103C7000DB0F494140F23C10C2F2000090ED000A17
:103C80001FED0A1A30EE010A80ED000A40F2587565
:103C9000C2F2000540F24C71C2F20001284606F063
:103CA00051FA3168481C3060B0F5FA5F40F24010BC
:103CB000C2F2000004BF2269026049F6404291420C
:103CC000FFF683AC94ED040A90ED001A1FED1C2A58
:103CD00030EE410AB4EE420AF1EE10FA7FF775AC0D
:103CE0001FED201AB4EE410AF1EE10FABFF66DACEA
:103CF00040F23C1AC2F2000A9AED000A1FED2B1A9C
:103D0000022080EE010A00278BF800002F6007F0E8
:103D1000D3FDBDEEC00A10EE100A40F24C01207235
:103D200040F2C874C2F20001C2F200040870C2B2CC
:103D30000FF6A00120463760CAF80070FCF74CFB74
:103D40004DE344F62161884280F2C6811FED420AAC
:103D5000C8E1584567DA40F2180040F27016C2F226
:103D60000000C2F2000690ED000A96ED002AB6EEC1
:103D7000001A1FED439A20EE01AAB8EEC20A1FED09
:103D80004A8A20EE090A20EE080A07F0E3FDDAF875
:103D9000000005F57A612AEE000A884287ED000AE4
:103DA00032DD96ED000AB8EEC00A20EE090A20EED8
:103DB000088A94ED089AB0EE480A07F06DFC40F2CC
:103DC0007810C2F2000090ED001A29EE000A31EEE0
:103DD000000A94ED089A80ED000AB0EE480A07F058
:103DE000B9FD40F26410C2F2000040F2081190EDFB
:103DF000001AC2F2000129EE000A0A6831EE000A38
:103E000080ED000A501C086030680130A0EB0B0107
:103E1000B1FA81F14909002940F27011C2F20001A2
:103E200018BF0020086040F2F85594ED070A40F2F0
:103E3000E450C2F20005C2F20000294605F024FB5E
:103E4000286840F21066C2F20006F0603046012198
:103E500003F024FE706940F20066C2F20006306092
:103E6000686840F26C65C2F20005E86028460121EE
:103E700003F014FE686940F22865706030681FED39
:103E80008A8AC2F200050021C5E903012846012102
:103E9000B0EE480A04F05AF9286A40F25875C2F2A6
:103EA000000528603868716840F28466C2F2000636
:103EB000C6E9031030460121B0EE480A04F046F985
:103EC000306A94ED070A40F24C716860C2F200015A
:103ED000284606F037F9DAF8000001305845CAF8EC
:103EE00000007FF472AB40F20414C2F200042068B8
:103EF0001FEDAB9A002840F2741B40F26010C2F232
:103F0000000BC2F20000B0EE498A25D09BED000AFA
:103F100090ED001A20EE000A21EE011A30EE011A8F
:103F2000B1EEC10AB4EE400AF1EE10FA80F1198345
:103F300094ED001A30EE000AB8EE411A80EE010A44
:103F400040F21800C2F2000090ED001AB6EE002A0E
:103F500021EE021A80EE018A40F20816C2F2000633
:103F6000306868B340F27810C2F2000090ED000AA9
:103F700040F26410C2F2000090ED001A20EE000A38
:103F800021EE011A30EE011AB1EEC10AB4EE400A78
:103F9000F1EE10FA80F1EA8296ED001A30EE000A96
:103FA000B8EE411A80EE010A40F21800C2F2000099
:103FB00090ED001AB6EE002A21EE021A80EE019A68
:103FC00089EE080AB7EE001ABFEE009A20EE000A4A
:103FD00081EE000A30EE091AB1EEC10AB4EE400AD1
:103FE000F1EE10FA80F1B8821FEDE11A1FEDE12A1F
:103FF00080EE011A1FEDE20A40F26400C2F20000F6
:1040000021EE000A30EE090A80EE080A21EE021ABB
:10401000C1EE080A1FEDF41A80ED000A40F26800B4
:10402000C2F20000D0ED001A40F26000C2F20000BF
:10403000C0ED000A40F21870C2F2000004F0D6F899
:104040004CF2E870C0F6000090E88E00056940F27E
:10405000C874007DC2F200042075204684E88E00FA
:104060002561FCF71BFC82B240F25050C2F2000006
:10407000214603F0CFFB012040F24B7188F800008D
:104080000020C2F20001087040F27011C2F200017B
:10409000086040F26011C2F20001086040F278113D
:1040A000C2F20001086040F26411C2F2000108602F
:1040B00040F20411C2F20001CAF80000CBF800007F
:1040C00008603060FFF781BA47F23052914280F2C7
:1040D000E580B0EE080AE7E047F2305188420BDC99
:1040E0009FEDEF0A40F2587040F24C71C2F20000AE
:1040F000C2F2000106F026F8DAF8001042F2283089
:10410000814240F2381004F12402C2F2000014D0BF
:1041100047F24813994212D044F63822914214D102
:10412000626A40F23013C2F200031A6040F22C13AC
:1041300004F11002C2F2000305E0034603E040F27E
:104140003413C2F2000312681A60013147F2305290
:104150009142CAF800107FF438AA40F23011C2F23E
:10416000000191ED000A40F23411C2F2000191ED1C
:10417000002A90ED001AB4EE420AF1EE10FA3BDA92
:10418000B4EE410AF1EE10FA36DD40F20400C2F25C
:1041900000000121016040F24C00C2F200000078F2
:1041A000DFEDC00A00EE100A40F22C10C2F200004F
:1041B00090ED001AB8EE400A21EE000A0120E160FD
:1041C00006F02EFA40F20800C2F2000080ED000A6C
:1041D0004CF64000C0F6000090E88E0000F1100C94
:1041E00040F2C8709CE86010C2F200008EC084EDFE
:1041F000010A80E860108CE1B4EE420AF1EE10FA98
:1042000040F35281B4EE410AF1EE10FA80F24C8193
:1042100040F24C02C2F2000240F204001278C2F2F4
:1042200000004FF0FF310160504200EE100A40F2F2
:104230002C10C2F2000090ED001AB8EEC00A21EE78
:10424000000A9FEDE31ADFEDD20A30EE010A0120E9
:10425000E16006F0E5F940F20800C2F2000080EDEE
:10426000000A4CF62000C0F60000D0E900E2D0E9D8
:104270000237D0E90465D0F818C040F2C871007F59
:10428000C2F2000184ED010AC1E900E2C1E902378E
:10429000C1E90465C1F818C008773AE149F63F4220
:1042A00091421DDCB1EE000A40F26071C2F20001E1
:1042B00091ED001A21EE000AB1EE041A80EE010A17
:1042C000A0EC010A0021016040F2587040F24C71EC
:1042D0009FEDAF0AC2F20000C2F2000105F032FF0A
:1042E00040F2F05440F2E450C2F20004C2F2000086
:1042F000214605F0A1F894ED000A94ED011A20EE94
:10430000000A21EE011A30EE011AB1EEC10AB4EE34
:10431000400AF1EE10FA80F11A8140F2C864C2F24C
:1043200000042046012184ED030A03F0B7FB94ED5D
:10433000050A40F20860C2F2000080ED000A286819
:1043400047F23A31884200F10101296054DD47F219
:104350003B3188426AD049F64B21884279D049F6F0
:104360003F4188427FF431A940F24C10C2F2000074
:1043700090ED000A40F25010C2F2000090ED001AD9
:1043800004208BF8000040F25410C2F2000030EE1E
:10439000010A90ED001A40F25811C2F2000130EE0D
:1043A000010A91ED001A0020286030EE010AB5EEF6
:1043B000001A40F2107020EE010AC2F2000080EDF7
:1043C000000A10EE100A07F00BFF40F2C874C2F2A8
:1043D000000402460B4679A12046FBF7FDFF20466C
:1043E000FCF75CFA82B240F25050C2F20000214663
:1043F00003F010FAFFF7E9B842F21B5188423BD0B4
:1044000044F62B4188427FF4E0A840F26070C2F28B
:10441000000090ED001AB1EE042A31EE011A81EE8F
:10442000021A40F25010C2F2000033E040F2607015
:10443000C2F2000090ED001AB0EE082A21EE021A36
:10444000B1EE042A81EE021A40F25410C2F20000CA
:1044500020E040F26070C2F2000090ED001AB1EE70
:10446000002A21EE021AB1EE042A81EE021A40F26D
:104470005810C2F200000DE040F26070C2F200007D
:1044800090ED001AB1EE042A81EE021A40F24C10AF
:10449000C2F2000081EE000A80ED000AFFF795B835
:1044A000920A863F0000000040F20400C2F20000C1
:1044B0000121016040F24C00C2F200000078DFED03
:1044C000340A00EE100A40F22C10C2F2000090ED07
:1044D000001AB8EE400A21EE000A0120E16006F061
:1044E0009FF840F20800C2F2000080ED000A4CF292
:1044F000D070C0F6000090E88E00066940F2C875E2
:10450000808AC2F2000584ED010A85E88E002E61E2
:10451000A88240F2C875C2F200052846FCF7BEF931
:1045200082B240F25050C2F20000294603F072F904
:104530000020CAF80000606203208BF80000FFF73B
:1045400044B8B0EE410A07F0CDFAFEF7A8BFB0EECE
:10455000410A07F0C7FAE0E6B0EE410A07F0C2FAF6
:1045600042E5B0EE410A07F0BDFAE1E4B0EE410ADF
:1045700007F0B8FA10E5B0EE410A07F0B3FAFFF71A
:104580005CB9B0EE410A07F0ADFAFFF731BA00BFEF
:10459000000000004C71207265616420646F6E65DC
:1045A0003A2566480D0A00004C642072656164205B
:1045B000646F6E653A2566480D0A000052207265E8
:1045C000616420646F6E653A25666F686D0D0A0040
:1045D000DB0F4940706F6C655F70616972732072A8
:1045E00065616420646F6E653A25640D0A00000001
:1045F0007047000070B5044603F098F9216806463C
:10460000084603F0A9F900281CBF022070BD2068ED
:10461000C168C06C002908D410F4C07005D1E06DE9
:1046200040F02000E065012070BD94F8580001289A
:1046300004BF022070BD012084F858002046FDF719
:10464000E1FC054618B1002084F858004BE0E06D0D
:1046500043F20101C00546BF206E20F00800002093
:104660002066E06D884300F58050E065206840F2E8
:104670000011C5F200018842014608BF4FF0A04179
:10468000002E18BF814203D1E26D22F48012E26550
:1046900060220260002284F85820C268920203D58A
:1046A000426842F480624260A269D0F804C06FF0B0
:1046B0004003082A08BF6FF0200303EA0C0343609D
:1046C0004FF02002436808BF40221A4381424260F3
:1046D00006D0072E0ED80121B14011F0C10F09D02C
:1046E00003F032F908B1284670BD206803F040F9A4
:1046F000284670BDE06D40F48010E065284670BD2E
:1047000070470000704700002DE9F04182B0044678
:1047100090F85800012803D1022002B0BDE8F081D2
:10472000012084F858000020019000902068B0F12A
:10473000A04F10D140F20838C5F20008A8F5027663
:1047400030460D4603F032F921680746084603F06B
:104750002DF938430AD0E06D40F02000E0650120DB
:10476000002184F8581002B0BDE8F0812868D8F81C
:104770000010002821F4604013D0696894F83820B4
:10478000084340EA4230C8F800004FF0A04003F070
:1047900001F90746304603F0FDF838430FD00020FA
:1047A000DEE7C8F800004FF0A04003F0F3F805463C
:1047B000304603F0EFF828430BD00020D0E7D8F8BC
:1047C000000040F61F7188432968AA680843104317
:1047D00004E0D8F8000040F61F718843C8F80000D4
:1047E0000020BDE770470000704700002DE9F04150
:1047F000044600680568466803F090F806EA050775
:10480000B90705460CD5E06DC00603D4E06D40F451
:104810000060E0652046FEF7C7F9206802210160CC
:1048200040F200187807C5F2000858BF5FEA077029
:1048300044D5E06DC00603D4E06D40F40070E0653F
:10484000206803F0B7F898B320680146404508BFD8
:104850004FF0A041814218BF0946002D08BF014614
:10486000052D08BF0146092D08BF0146C968890406
:104870001ED4016809071BD503F094F840B1E06D20
:1048800040F01000E065206E40F0010020660FE06F
:104890002068416821F00C014160E06D20F48070D7
:1048A000E065E06DC00403D4E06D40F00100E06518
:1048B0002046FFF797FF20680C210160B80658BF1B
:1048C0005FEA476050D5E06DC00603D4E06D40F468
:1048D0000050E065206803F043F82168064608466A
:1048E00003F068F8216825F001030A46414508BF36
:1048F0004FF0A0428A4218BF1246002D08BF0A4658
:10490000062B08BF0A46D26846B3930103D528B3E5
:1049100012F4005022D1086892021FD410F0400017
:104920001CD0084603F014F840B1E06D40F01000D0
:10493000E065206E40F0010020660FE020684168CD
:1049400021F060014160E06D20F48050E065E06D91
:10495000C00503D4E06D40F00100E0652046FEF79D
:1049600047FB206860210160380606D4F80510D4A2
:10497000B8051BD4F8063AD525E0E06D40F4803048
:10498000E065204600F03AF9206880210160F805D2
:10499000EED5E06D40F40030E0652046FFF7B0FE54
:1049A00020684FF480710160B805E3D5E06D40F4F4
:1049B0008020E0652046FFF7A5FE20684FF40071D7
:1049C0000160F80613D5E06B18B12DB302F09EFF1D
:1049D00050B1E06D40F48060E065206E40F0020070
:1049E00020662046FFF700FF20681021016078054F
:1049F00058BFBDE8F0812068E16D41F48041E16578
:104A0000216E41F0080121664FF48061016020466B
:104A1000FFF7EEFDBDE8F0812068C06800F00100FE
:104A20000028D6D1E0E7000070B582B0044600202F
:104A30000190CCB1E06D30B9204600F0E1F80020E3
:104A4000206684F85800206802F09CFF10B12068AE
:104A500002F030FF206802F0A1FF38B1206802F0B8
:104A60009DFFF0B1002525E00125C3E0206802F09C
:104A700033FF40F20000C2F20000006842F66351CA
:104A80008009C0F23E51A0FB01018809022101EB1F
:104A9000400000BF019001980028DFD00198013844
:104AA000F8E7E06D012540F01000E065206E40F071
:104AB00001002066206802F075FFE16D01F0100131
:104AC0000843E06D03D040F01000012591E020F490
:104AD00081700230E065206802F058FF78B94FF02D
:104AE000A04002F053FF064640F20010C5F200005D
:104AF00002F04CFF304302D1606802F08BFF607F10
:104B0000E16B41EA4030D4E90221084394F82410D3
:104B10001043012940EA014106D1A06A0022CFF6E4
:104B2000FE7202EB40400143E06A28B100F4787065
:104B3000226B084340EA02012068626BC36844F2BA
:104B40000706CFF6F07633401943C160016921F0C2
:104B500040611143016102F0FBFED8BB94F83800BC
:104B6000217F400040EA813220682169C36844F215
:104B70000206B3431A43C260026949B142F480326B
:104B80000261D0F8C02043F6FF739A43114307E057
:104B900022F480310161D0F8C01043F6FF729143D6
:104BA000C0F8C01094F840200169012A0FD140F2EA
:104BB000FD7204F1440621EA020C4CCE216D42EA5A
:104BC0000C021A433243114341F0010101E021F08C
:104BD0000101016120686169026B012922F00F0166
:104BE00002D1226A013A11430163E06D012161F3B0
:104BF0000100E065284602B070BD0000704700006B
:104C000010B598B0044600201790CDE91500CDE905
:104C1000130002A84421FBF7A5FE2068B0F1A04FC5
:104C200001D018B010BD4FF4004002904FF000507A
:104C3000119002A801F044F8002818BFFDF7ACFB62
:104C400041F24C00C4F20200016841F400510160DD
:104C5000016801F4005101910199016841F00201DC
:104C60000160006813A900F002000190019841F66C
:104C700003001390032014900020159040F2004090
:104C8000C4F6000000F03AFE12200021002200F0DD
:104C900081FF122000F07AFF18B010BD80B50146E8
:104CA00090F82500022824D10868D1E910CE8A6C3A
:104CB000036823F00E030360136823F4807313600A
:104CC000026822F0010202600EF01F00012202FAC7
:104CD00000F0CCF80400D1E913205060486D60B1B9
:104CE000026822F480720260D1E91602426000205C
:104CF00004E00420C863012000E00020012281F8C4
:104D00002520002281F8242080BD000080B590F885
:104D1000251002292DD10168D0E910CE826C0B68D4
:104D200023F00E030B600B6823F001030B60116886
:104D300021F4807111600EF01F02012101FA02F2CC
:104D4000CCF80420D0E913325A60426D32B11368B6
:104D500023F480731360D0E91623536080F8251084
:104D6000826B002180F824100AB190470021084688
:104D700080BD0421C1630121002280F8251080F844
:104D80002420084680BD0000B0B50268D0E910C4F8
:104D9000DCF80050136804F01F0E590712D50421E7
:104DA00001FA0EF414EA05010CD01168890603D447
:104DB000116821F004011160CCF80440016BB9B313
:104DC0008847B0BD990718D5022101FA0EF414EAFC
:104DD000050112D01168890606D4116821F00A0174
:104DE0001160012180F82510CCF80440C16A00222E
:104DF00080F82420E1B18847B0BD190758BFB0BD85
:104E0000082101FA0EF1294012D0116821F00E019B
:104E10001160012101FA0EF2CCF80420C16380F880
:104E20002510416B0022002980F8242018BF8847F4
:104E3000B0BD0000002804BF012070472DE9F041FB
:104E400040F2000C0446C4F2020C00684FF6F8333E
:104E50000CF58162CBF6FD73904238BF03F5806399
:104E600003EB00024CF6CD43CCF6CC43A2FB03236C
:104E700004F1080E0CF580616FF003059EE8044113
:104E80003CBF0021C4F2020105EA9303C4E91013F8
:104E9000022184F82510016847F6F073994304F164
:104EA00014071143E8CF41EA080141EA0E01194312
:104EB00029433143394301602046FDF77FF9A0685B
:104EC00004F14803B0F5804F04BF002060606068C3
:104ED0000ECBC7B2013803280F60536009D82046B3
:104EE000FDF792F904F1540207CA002303604A60F7
:104EF00003E00020C4E91500E06500200121E06323
:104F000084F8251084F82400BDE8F08110B504462B
:104F100090F82400012820D0012084F8240094F87F
:104F20002500012816D1022084F825000020E06326
:104F3000D4F800C0DCF8000020F00100CCF800003C
:104F40002046FDF775F92068226B01683AB141F0FF
:104F50000E010AE0002084F82400022010BD21F098
:104F600004010160016841F00A010160A06C016860
:104F7000C90303D5016841F480710160606D18B107
:104F8000016841F4807101602068016841F001010D
:104F90000160002010BD0000B0B5044600F08AFD9D
:104FA000054640F27400C2F200000068611C18BFA0
:104FB000044400BF00F07EFD401BA042FAD3B0BD08
:104FC00010B590F85C30013B012B66D8006801F009
:104FD0000703D0F858E01EF0010C00D11BBB11F004
:104FE000380F02D01EF002041DD011F4E07F02D071
:104FF0001EF0040417D011F4F05F02D01EF0080474
:1050000011D011F4604F02D01EF010040BD011F437
:10501000403F02D01EF0200405D011F47C0F06D0D2
:105020001EF0400403D1C46D44F00104C465002B9C
:1050300018BFBCF1000F38D111F0380F18BF1EF0A7
:10504000020332D111F4E07F18BF1EF004032CD10B
:1050500011F4F05F18BF1EF0080326D111F4604F61
:1050600018BF1EF0100320D111F4403F18BF1EF0EE
:1050700020031AD111F47C0F18BF1EF0400314D185
:105080000B0618D4CB0504D5D0F8E0301A43C0F88D
:10509000E02000F15402002003E000F16002012052
:1050A000022113681943116010BDC36D43F0020360
:1050B000C3650B06E6D5D0F8DC301343C0F8DC300E
:1050C000CB05E1D4E5E70000B0B5044690F85C00FC
:1050D000022814D12068D0F8C4309B0213D4D0F831
:1050E000C400C0F3014520462B46FDF7D5F9012049
:1050F0002168A840C1F8CC00A0650020B0BD206E9A
:1051000040F0080002E0206E40F4007020660120AC
:10511000B0BD000080B590F85C20013A012A13D898
:105120000A68BAB101F1040ED1E904319EE80450D5
:10513000406C43EA4E7E41EA8C7100EBC20340F8BA
:1051400032E00020596080BD016E41F0020101662D
:10515000012080BDD1E90323D1E901CED2064969FE
:1051600042EA8E7242EA0342006C114340F82C106E
:10517000002080BD80B5844690F85C00012813D1E2
:10518000DCF800C092005CF8800FDDF808E042EA2D
:10519000011141EA430120F03F0041EA0E010143C1
:1051A0000020CCF8001080BD5CF8600F40F00401D6
:1051B0000120CCF8001080BD70470000704700004F
:1051C00070B590F85C50022D19D1D0F800C040297C
:1051D00019D1DCF890502D077DD0DCF89050ED010E
:1051E00046BFDCF88050C5F340250025DCF8904030
:1051F000C4F3012404EB050C00F1480518E0016E2E
:1052000041F008016AE0DCF898502D0763D0DCF823
:105210009850ED0146BFDCF88050C5F3002500250D
:10522000DCF89840C4F3012404EB050C00F14C05B4
:10523000D5F800E00CEBCC045EF8345015F0804556
:1052400055605EF8345025F0604608BFC5F38A46C5
:1052500016605EF8345005F0005595605EF83450E5
:105260000EEBC40E05F000441461BEF80440D46196
:10527000BEF8064014F00F04D460DEF8044004F4D5
:1052800080145461DEF8044004F4001494619EF824
:10529000074004F07F041462DEF804404FEAD4743F
:1052A00054620FD04CF284550EF1080E0024C0F663
:1052B000000500BF1EF804601E55D6680134AE5DBF
:1052C000B442F7D3006840290CBFC0F894C0C0F8BE
:1052D0009CC0002070BD016E41F480710166012008
:1052E00070BD0000704700002DE9F04F85B0044606
:1052F0000068016D426D056DD0F85490D0F850A053
:10530000D0F85480036D01EA020B0493436D0393BC
:10531000036D0293436D0193436D076D1F407B0640
:1053200004D5402101652046FFF7DCFF05EA0906A8
:10533000F8050BF4E0550BD52068D0F8D810D0F85C
:10534000E02011404FF480720265204600F0D6F94B
:1053500008EA0A0806F007062DB120682946056507
:10536000204600F0CFF908F038052EB1206831460C
:105370000665204600F072F92DB1206829460565C2
:10538000204600F09FF9B8053CD4380643D4B80451
:1053900006D520684FF400510165204600F0ACF9B5
:1053A0003804DDE9011000EA010506D520684FF454
:1053B00000410165204600F09DF9DDE90310084039
:1053C000790405F4602107D522684FF48043136502
:1053D000226E42F08002226600F4710521B120683D
:1053E00001652046FFF7EAFE25B120680565206EBD
:1053F00028432066206E10B12046FFF7DDFE05B081
:10540000BDE8F08F20684FF400710165204600F080
:105410007BF93806BBD52068D0F8D410D0F8DC2052
:10542000114080220265204600F06AF9B804B0D429
:10543000B6E70000B0B5D8B1044690F85C0028B9D2
:10544000002084F85D00204600F0B4F820688169EF
:1054500021F01001816100F02DFB05462068816973
:10546000090707D500F026FB401B0B28F6D312E0F6
:105470000120B0BD816941F00101816100F01AFB9A
:10548000054600BF20688169C9070DD100F012FBF5
:10549000401B0B28F6D3206E032140F0010020664C
:1054A000012084F85C10B0BD826946F20041C4F26C
:1054B000000142F002028842826102D16268C1F8B2
:1054C0000021217C8269012922F0400218BF40326C
:1054D0008261617C8269012922F4804208BF02F561
:1054E00080428261A17C8269012922F4805218BF26
:1054F00002F5805282618169D4E902C221F44073CD
:1055000043EA0C038361836923F0A4038361036985
:1055100023F010030361AAB1022A0FD0012A03D19C
:10552000826942F004020CE08369032A43F080039D
:105530008361036943F01003036103D1826942F080
:1055400020028261D4E90552D4E907316FF0FF0EE1
:10555000013A0EEB032343EA426200230139CFF6FE
:10556000FF73114303EB05421143BCF5407FC1615A
:1055700010D1D4E909C2D4E90B51013A0EEB05254B
:105580002A436FF00F0505EB0111114303EB0C42A9
:105590001143C160E16BD0F8C0201143C0F8C010C6
:1055A0002046FCF707FF00200121A065206684F853
:1055B0005C10B0BD10B598B0044600201790CDE93E
:1055C0001500CDE9130002A84421FBF7CBF92068B0
:1055D00046F20041C4F20001884201D018B010BD6B
:1055E0004FF4805002904FF000700E9002A800F02F
:1055F00067FB002818BFFCF7CFFE41F24C00C4F255
:105600000200C16841F00071C160C16801F0007121
:1056100001910199016841F002010160006813A93C
:1056200000F00200019001984FF4407013900220A6
:1056300014900020CDE915000920179040F2004099
:10564000C4F6000000F05AF915200121002200F0F4
:10565000A1FA152000F09AFA18B010BD10B58CB060
:1056600001292CD140F20C24C2F20004207830BB76
:1056700040F22020C2F200000178012204292270A9
:105680009CBF0131017040F2C030C2F2000002AA9A
:105690006B464021FFF794FD049870B940F20C610D
:1056A000C2F2000102980978884206D140F2102126
:1056B000C2F200016846FCF72FFF002020700CB0FA
:1056C00010BD00007047000090F85C1001290BD15C
:1056D000022180F85C1001688A6922F001028A6167
:1056E0000021016608467047016E41F00401016621
:1056F00001207047704700007047000070470000AD
:105700007047000070470000704700002DE9F0432B
:1057100081B040F22C05C2F200052A78012A01D19D
:10572000022465E00646012028704FF47A7088460E
:10573000FCF7B6FF0446002858D142F200090020C9
:10574000C4F202096860D9F80000D9F80010800599
:1057500001F4806002D420B9002011E048B9012092
:105760000EE0D9F8000020F48060C9F800000220A3
:1057700006E0D9F8000020F48060C9F8000003209A
:105780002877306801280ED17068FCF739FF4FF494
:105790007A70FCF785FFD9F81410044621F0040054
:1057A000C9F8140020E04FF0FF30C8F80000D6E937
:1057B00002703844874217D23846FCF731FF4FF465
:1057C0007A70FCF76DFFD9F81410044621F4FD70CF
:1057D000C9F8140034B9D6E90201013708448742F8
:1057E000EAD301E0C8F80070FCF7D8FE002028706A
:1057F000204601B0BDE8F08342F21400C4F202007A
:10580000016841F0004101600068C043C00F70476B
:105810002DE9F04740F22C09C2F20009904699F8B0
:105820000020012A04BF0220BDE8F08705460120C0
:1058300089F800004FF47A701F460E46FCF730FFDF
:105840000446E8BB42F2000A0020C4F2020AC9F88A
:105850000400DAF80010490506D5DAF8000020F453
:105860008060CAF80000022089F81C0085B1681E1B
:1058700001284FF0FF3714D8AC1E3046414618BF00
:105880000124FCF7F1FE022D08BF6FF4802709E028
:10589000304642463B46FCF7D7FE6FF00107002436
:1058A00000E001244FF47A70FCF7FAFE002C044665
:1058B00004D1DAF814003840CAF81400FCF76EFE80
:1058C000002089F800002046BDE8F08742F2080079
:1058D000C4F20200C168B1F1FF3FC4BF00207047AD
:1058E00040F22311C4F26751016048F6AB11CCF6C7
:1058F000EF510160C068C00F704700002DE9F04F04
:1059000083B00D68002D00F0C58000F138424FEAE9
:10591000B22241F200470192C4F600070622002697
:1059200000244FF0010AB84208BF0522009209E0A6
:105930000D68043435FA0AF20AF1010A06F102068A
:1059400000F0A880AAF1010C012202FA0CFB15EA72
:105950000B09EDD0D1F8048008F00305A5F1010E84
:10596000BEF1010F11D887680322CB68B24027EA45
:105970000202B3401A4382604268C8F3001322EA6D
:105980000B0203FA0CF31A434260032D1CD0C268C9
:1059900003238F68B3409A4307FA06F31A43022D94
:1059A000C26011D16FF0030202EA5C02024404F00B
:1059B0001C070F23D2F820E003FA07F50B692EEA43
:1059C0000505BB402B431362026803234F68B340B5
:1059D0009A4307F00303B3401A4317F4403F0260B1
:1059E000A6D041F26003C4F202031A6840F2004EEE
:1059F00042F001021A601A68C4F2010E02F00102BC
:105A00000292029A2CF003024FF608487244CFF635
:105A1000FF7852F8083004F00C070F25BD4023EA48
:105A2000050C019B009D052B38BF1D4605FA07F7A5
:105A300047EA0C0342F80830DEF808204B6842EAD7
:105A4000090740F20C4CDD0258BF22EA0907CEF8E4
:105A50000870C4F2010CDCF800209D0242EA09073C
:105A600058BF22EA0907CCF80070DEF804209D0335
:105A700042EA090758BF22EA0907CEF80470DEF8A7
:105A80000020DB0342EA090758BF22EA0907CEF8E3
:105A900000704DE703B0BDE8F08F000000690840DA
:105AA00018BF0120704700001823002A08BF2823D0
:105AB000C150704740F66010C2F2000000687047A5
:105AC00040F2740040F66011C2F20000C2F2000120
:105AD00000680A68104408607047000080B5032021
